{
  "_format": "hh-sol-artifact-1",
  "contractName": "ERC721",
  "sourceName": "contracts/ERC721.sol",
  "abi": [
    {
      "anonymous": false,
      "inputs": [
        {
          "indexed": true,
          "internalType": "address",
          "name": "owner",
          "type": "address"
        },
        {
          "indexed": true,
          "internalType": "address",
          "name": "approved",
          "type": "address"
        },
        {
          "indexed": true,
          "internalType": "uint256",
          "name": "tokenId",
          "type": "uint256"
        }
      ],
      "name": "Approval",
      "type": "event"
    },
    {
      "anonymous": false,
      "inputs": [
        {
          "indexed": true,
          "internalType": "address",
          "name": "owner",
          "type": "address"
        },
        {
          "indexed": true,
          "internalType": "address",
          "name": "operator",
          "type": "address"
        },
        {
          "indexed": false,
          "internalType": "bool",
          "name": "approved",
          "type": "bool"
        }
      ],
      "name": "ApprovalForAll",
      "type": "event"
    },
    {
      "anonymous": false,
      "inputs": [
        {
          "indexed": true,
          "internalType": "address",
          "name": "from",
          "type": "address"
        },
        {
          "indexed": true,
          "internalType": "address",
          "name": "to",
          "type": "address"
        },
        {
          "indexed": true,
          "internalType": "uint256",
          "name": "tokenId",
          "type": "uint256"
        }
      ],
      "name": "Transfer",
      "type": "event"
    },
    {
      "inputs": [
        {
          "internalType": "address",
          "name": "to",
          "type": "address"
        },
        {
          "internalType": "uint256",
          "name": "tokenId",
          "type": "uint256"
        }
      ],
      "name": "approve",
      "outputs": [],
      "stateMutability": "nonpayable",
      "type": "function"
    },
    {
      "inputs": [
        {
          "internalType": "address",
          "name": "owner",
          "type": "address"
        }
      ],
      "name": "balanceOf",
      "outputs": [
        {
          "internalType": "uint256",
          "name": "",
          "type": "uint256"
        }
      ],
      "stateMutability": "view",
      "type": "function"
    },
    {
      "inputs": [
        {
          "internalType": "uint256",
          "name": "tokenId",
          "type": "uint256"
        }
      ],
      "name": "burn",
      "outputs": [],
      "stateMutability": "nonpayable",
      "type": "function"
    },
    {
      "inputs": [
        {
          "internalType": "uint256",
          "name": "tokenId",
          "type": "uint256"
        }
      ],
      "name": "getApproved",
      "outputs": [
        {
          "internalType": "address",
          "name": "",
          "type": "address"
        }
      ],
      "stateMutability": "view",
      "type": "function"
    },
    {
      "inputs": [
        {
          "internalType": "address",
          "name": "to",
          "type": "address"
        },
        {
          "internalType": "uint256",
          "name": "tokenId",
          "type": "uint256"
        }
      ],
      "name": "mint",
      "outputs": [],
      "stateMutability": "nonpayable",
      "type": "function"
    },
    {
      "inputs": [
        {
          "internalType": "uint256",
          "name": "tokenId",
          "type": "uint256"
        }
      ],
      "name": "ownerOf",
      "outputs": [
        {
          "internalType": "address",
          "name": "",
          "type": "address"
        }
      ],
      "stateMutability": "view",
      "type": "function"
    },
    {
      "inputs": [
        {
          "internalType": "address",
          "name": "operator",
          "type": "address"
        },
        {
          "internalType": "bool",
          "name": "approved",
          "type": "bool"
        }
      ],
      "name": "setApprovalForAll",
      "outputs": [],
      "stateMutability": "nonpayable",
      "type": "function"
    },
    {
      "inputs": [
        {
          "internalType": "address",
          "name": "from",
          "type": "address"
        },
        {
          "internalType": "address",
          "name": "to",
          "type": "address"
        },
        {
          "internalType": "uint256",
          "name": "tokenId",
          "type": "uint256"
        }
      ],
      "name": "transferFrom",
      "outputs": [],
      "stateMutability": "nonpayable",
      "type": "function"
    }
  ],
  "bytecode": "0x608060405234801561001057600080fd5b506111d8806100206000396000f3fe608060405234801561001057600080fd5b50600436106100885760003560e01c806342966c681161005b57806342966c68146101115780636352211e1461012d57806370a082311461015d578063a22cb4651461018d57610088565b8063081812fc1461008d578063095ea7b3146100bd57806323b872dd146100d957806340c10f19146100f5575b600080fd5b6100a760048036038101906100a29190610d1c565b6101a9565b6040516100b49190610e44565b60405180910390f35b6100d760048036038101906100d29190610ce0565b6101e6565b005b6100f360048036038101906100ee9190610c55565b610365565b005b61010f600480360381019061010a9190610ce0565b6103be565b005b61012b60048036038101906101269190610d1c565b6105d8565b005b61014760048036038101906101429190610d1c565b6106dc565b6040516101549190610e44565b60405180910390f35b61017760048036038101906101729190610c2c565b610719565b6040516101849190610f3a565b60405180910390f35b6101a760048036038101906101a29190610ca4565b610761565b005b60006002600083815260200190815260200160002060009054906101000a900473ffffffffffffffffffffffffffffffffffffffff169050919050565b60006101f1826106dc565b90506101fd338361085e565b61023c576040517f08c379a000000000000000000000000000000000000000000000000000000000815260040161023390610e9a565b60405180910390fd5b8073ffffffffffffffffffffffffffffffffffffffff168373ffffffffffffffffffffffffffffffffffffffff1614156102ab576040517f08c379a00000000000000000000000000000000000000000000000000000000081526004016102a290610eda565b60405180910390fd5b826002600084815260200190815260200160002060006101000a81548173ffffffffffffffffffffffffffffffffffffffff021916908373ffffffffffffffffffffffffffffffffffffffff160217905550818373ffffffffffffffffffffffffffffffffffffffff1661031e846106dc565b73ffffffffffffffffffffffffffffffffffffffff167f8c5be1e5ebec7d5bd14f71427d1e84f3dd0314c0f7b2291e5b200ac8c7c3b92560405160405180910390a4505050565b61036f338261085e565b6103ae576040517f08c379a00000000000000000000000000000000000000000000000000000000081526004016103a590610e9a565b60405180910390fd5b6103b983838361099e565b505050565b600073ffffffffffffffffffffffffffffffffffffffff168273ffffffffffffffffffffffffffffffffffffffff16141561042e576040517f08c379a000000000000000000000000000000000000000000000000000000000815260040161042590610efa565b60405180910390fd5b600073ffffffffffffffffffffffffffffffffffffffff166001600083815260200190815260200160002060009054906101000a900473ffffffffffffffffffffffffffffffffffffffff1673ffffffffffffffffffffffffffffffffffffffff16146104d0576040517f08c379a00000000000000000000000000000000000000000000000000000000081526004016104c790610f1a565b60405180910390fd5b60016000808473ffffffffffffffffffffffffffffffffffffffff1673ffffffffffffffffffffffffffffffffffffffff168152602001908152602001600020600082825461051f9190610f66565b92505081905550816001600083815260200190815260200160002060006101000a81548173ffffffffffffffffffffffffffffffffffffffff021916908373ffffffffffffffffffffffffffffffffffffffff160217905550808273ffffffffffffffffffffffffffffffffffffffff16600073ffffffffffffffffffffffffffffffffffffffff167fddf252ad1be2c89b69c2b068fc378daa952ba7f163c4a11628f55a4df523b3ef60405160405180910390a45050565b60006105e3826106dc565b90506105f06000836101e6565b60016000808373ffffffffffffffffffffffffffffffffffffffff1673ffffffffffffffffffffffffffffffffffffffff168152602001908152602001600020600082825461063f9190610fbc565b925050819055506001600083815260200190815260200160002060006101000a81549073ffffffffffffffffffffffffffffffffffffffff021916905581600073ffffffffffffffffffffffffffffffffffffffff168273ffffffffffffffffffffffffffffffffffffffff167fddf252ad1be2c89b69c2b068fc378daa952ba7f163c4a11628f55a4df523b3ef60405160405180910390a45050565b60006001600083815260200190815260200160002060009054906101000a900473ffffffffffffffffffffffffffffffffffffffff169050919050565b60008060008373ffffffffffffffffffffffffffffffffffffffff1673ffffffffffffffffffffffffffffffffffffffff168152602001908152602001600020549050919050565b80600360003373ffffffffffffffffffffffffffffffffffffffff1673ffffffffffffffffffffffffffffffffffffffff16815260200190815260200160002060008473ffffffffffffffffffffffffffffffffffffffff1673ffffffffffffffffffffffffffffffffffffffff16815260200190815260200160002060006101000a81548160ff0219169083151502179055508173ffffffffffffffffffffffffffffffffffffffff163373ffffffffffffffffffffffffffffffffffffffff167f17307eab39ab6107e8899845ad3d59bd9653f200f220920489ca2b5937696c31836040516108529190610e5f565b60405180910390a35050565b60008061086a836106dc565b90508073ffffffffffffffffffffffffffffffffffffffff168473ffffffffffffffffffffffffffffffffffffffff16148061090457508373ffffffffffffffffffffffffffffffffffffffff166002600085815260200190815260200160002060009054906101000a900473ffffffffffffffffffffffffffffffffffffffff1673ffffffffffffffffffffffffffffffffffffffff16145b806109955750600360008273ffffffffffffffffffffffffffffffffffffffff1673ffffffffffffffffffffffffffffffffffffffff16815260200190815260200160002060008573ffffffffffffffffffffffffffffffffffffffff1673ffffffffffffffffffffffffffffffffffffffff16815260200190815260200160002060009054906101000a900460ff165b91505092915050565b8273ffffffffffffffffffffffffffffffffffffffff166109be826106dc565b73ffffffffffffffffffffffffffffffffffffffff1614610a14576040517f08c379a0000000000000000000000000000000000000000000000000000000008152600401610a0b90610eba565b60405180910390fd5b600073ffffffffffffffffffffffffffffffffffffffff168273ffffffffffffffffffffffffffffffffffffffff161415610a84576040517f08c379a0000000000000000000000000000000000000000000000000000000008152600401610a7b90610e7a565b60405180910390fd5b610a8f6000826101e6565b60016000808573ffffffffffffffffffffffffffffffffffffffff1673ffffffffffffffffffffffffffffffffffffffff1681526020019081526020016000206000828254610ade9190610fbc565b9250508190555060016000808473ffffffffffffffffffffffffffffffffffffffff1673ffffffffffffffffffffffffffffffffffffffff1681526020019081526020016000206000828254610b349190610f66565b92505081905550816001600083815260200190815260200160002060006101000a81548173ffffffffffffffffffffffffffffffffffffffff021916908373ffffffffffffffffffffffffffffffffffffffff160217905550808273ffffffffffffffffffffffffffffffffffffffff168473ffffffffffffffffffffffffffffffffffffffff167fddf252ad1be2c89b69c2b068fc378daa952ba7f163c4a11628f55a4df523b3ef60405160405180910390a4505050565b600081359050610bfc8161115d565b92915050565b600081359050610c1181611174565b92915050565b600081359050610c268161118b565b92915050565b600060208284031215610c3e57600080fd5b6000610c4c84828501610bed565b91505092915050565b600080600060608486031215610c6a57600080fd5b6000610c7886828701610bed565b9350506020610c8986828701610bed565b9250506040610c9a86828701610c17565b9150509250925092565b60008060408385031215610cb757600080fd5b6000610cc585828601610bed565b9250506020610cd685828601610c02565b9150509250929050565b60008060408385031215610cf357600080fd5b6000610d0185828601610bed565b9250506020610d1285828601610c17565b9150509250929050565b600060208284031215610d2e57600080fd5b6000610d3c84828501610c17565b91505092915050565b610d4e81610ff0565b82525050565b610d5d81611002565b82525050565b6000610d70601183610f55565b9150610d7b82611067565b602082019050919050565b6000610d93601683610f55565b9150610d9e82611090565b602082019050919050565b6000610db6600c83610f55565b9150610dc1826110b9565b602082019050919050565b6000610dd9600e83610f55565b9150610de4826110e2565b602082019050919050565b6000610dfc601283610f55565b9150610e078261110b565b602082019050919050565b6000610e1f600e83610f55565b9150610e2a82611134565b602082019050919050565b610e3e8161102e565b82525050565b6000602082019050610e596000830184610d45565b92915050565b6000602082019050610e746000830184610d54565b92915050565b60006020820190508181036000830152610e9381610d63565b9050919050565b60006020820190508181036000830152610eb381610d86565b9050919050565b60006020820190508181036000830152610ed381610da9565b9050919050565b60006020820190508181036000830152610ef381610dcc565b9050919050565b60006020820190508181036000830152610f1381610def565b9050919050565b60006020820190508181036000830152610f3381610e12565b9050919050565b6000602082019050610f4f6000830184610e35565b92915050565b600082825260208201905092915050565b6000610f718261102e565b9150610f7c8361102e565b9250827fffffffffffffffffffffffffffffffffffffffffffffffffffffffffffffffff03821115610fb157610fb0611038565b5b828201905092915050565b6000610fc78261102e565b9150610fd28361102e565b925082821015610fe557610fe4611038565b5b828203905092915050565b6000610ffb8261100e565b9050919050565b60008115159050919050565b600073ffffffffffffffffffffffffffffffffffffffff82169050919050565b6000819050919050565b7f4e487b7100000000000000000000000000000000000000000000000000000000600052601160045260246000fd5b7f63616c6c206275726e20696e7374656164000000000000000000000000000000600082015250565b7f4e6f74206f776e65722c206e6f20617070726f76616c00000000000000000000600082015250565b7f4e6f7420796f7572206f776e0000000000000000000000000000000000000000600082015250565b7f73616d6520616464726573736573000000000000000000000000000000000000600082015250565b7f63616e206e6f74206d696e742020746f20300000000000000000000000000000600082015250565b7f616c7265616479206d696e746564000000000000000000000000000000000000600082015250565b61116681610ff0565b811461117157600080fd5b50565b61117d81611002565b811461118857600080fd5b50565b6111948161102e565b811461119f57600080fd5b5056fea264697066735822122047be66187f49a10118f9a13565ffff253086483317bd5477249db58b4cb019d764736f6c63430008030033",
  "linkReferences": {},
  "deployedLinkReferences": {}
}