{
  "_format": "hh-sol-artifact-1",
  "contractName": "MarketPlace",
  "sourceName": "contracts/MarketPlace.sol",
  "abi": [
    {
      "inputs": [],
      "stateMutability": "nonpayable",
      "type": "constructor"
    },
    {
      "anonymous": false,
      "inputs": [
        {
          "indexed": true,
          "internalType": "address",
          "name": "erc721",
          "type": "address"
        },
        {
          "indexed": true,
          "internalType": "uint256",
          "name": "tokenId",
          "type": "uint256"
        },
        {
          "indexed": false,
          "internalType": "uint256",
          "name": "startDate",
          "type": "uint256"
        },
        {
          "indexed": false,
          "internalType": "uint256",
          "name": "endDate",
          "type": "uint256"
        }
      ],
      "name": "Listed",
      "type": "event"
    },
    {
      "inputs": [],
      "name": "ADMIN_ROLE",
      "outputs": [
        {
          "internalType": "bytes32",
          "name": "",
          "type": "bytes32"
        }
      ],
      "stateMutability": "view",
      "type": "function"
    },
    {
      "inputs": [
        {
          "internalType": "address",
          "name": "erc721",
          "type": "address"
        },
        {
          "internalType": "uint256",
          "name": "tokenId",
          "type": "uint256"
        },
        {
          "internalType": "uint256",
          "name": "_startDate",
          "type": "uint256"
        },
        {
          "internalType": "uint256",
          "name": "_endDate",
          "type": "uint256"
        },
        {
          "internalType": "uint256",
          "name": "_minBid",
          "type": "uint256"
        }
      ],
      "name": "list",
      "outputs": [],
      "stateMutability": "payable",
      "type": "function"
    },
    {
      "inputs": [
        {
          "internalType": "uint256",
          "name": "newFee",
          "type": "uint256"
        }
      ],
      "name": "setListingFee",
      "outputs": [],
      "stateMutability": "nonpayable",
      "type": "function"
    }
  ],
  "bytecode": "0x6080604052662386f26fc1000060005534801561001b57600080fd5b5033600260006101000a81548173ffffffffffffffffffffffffffffffffffffffff021916908373ffffffffffffffffffffffffffffffffffffffff1602179055506109558061006c6000396000f3fe6080604052600436106100345760003560e01c8063131dbd091461003957806375b238fc14610062578063b8bf029b1461008d575b600080fd5b34801561004557600080fd5b50610060600480360381019061005b91906106b0565b6100a9565b005b34801561006e57600080fd5b5061007761011e565b6040516100849190610760565b60405180910390f35b6100a760048036038101906100a29190610639565b610142565b005b336100d4817fa49807205ce4d355092ef5a8a18f56e8913cf4a201fbe287825b095693c217756104cc565b610113576040517f08c379a000000000000000000000000000000000000000000000000000000000815260040161010a9061079b565b60405180910390fd5b816000819055505050565b7fa49807205ce4d355092ef5a8a18f56e8913cf4a201fbe287825b095693c2177581565b600054341461015057600080fd5b3373ffffffffffffffffffffffffffffffffffffffff168573ffffffffffffffffffffffffffffffffffffffff16636352211e866040518263ffffffff1660e01b81526004016101a091906107db565b60206040518083038186803b1580156101b857600080fd5b505afa1580156101cc573d6000803e3d6000fd5b505050506040513d601f19601f820116820180604052508101906101f09190610610565b73ffffffffffffffffffffffffffffffffffffffff1614610246576040517f08c379a000000000000000000000000000000000000000000000000000000000815260040161023d906107bb565b60405180910390fd5b6102508585610518565b15610290576040517f08c379a00000000000000000000000000000000000000000000000000000000081526004016102879061077b565b60405180910390fd5b82600360008773ffffffffffffffffffffffffffffffffffffffff1673ffffffffffffffffffffffffffffffffffffffff16815260200190815260200160002060008681526020019081526020016000208190555081600460008773ffffffffffffffffffffffffffffffffffffffff1673ffffffffffffffffffffffffffffffffffffffff16815260200190815260200160002060008681526020019081526020016000208190555080600560008773ffffffffffffffffffffffffffffffffffffffff1673ffffffffffffffffffffffffffffffffffffffff16815260200190815260200160002060008681526020019081526020016000208190555080600660008773ffffffffffffffffffffffffffffffffffffffff1673ffffffffffffffffffffffffffffffffffffffff1681526020019081526020016000206000868152602001908152602001600020819055506000600760008773ffffffffffffffffffffffffffffffffffffffff1673ffffffffffffffffffffffffffffffffffffffff168152602001908152602001600020600086815260200190815260200160002060006101000a81548173ffffffffffffffffffffffffffffffffffffffff021916908373ffffffffffffffffffffffffffffffffffffffff160217905550838573ffffffffffffffffffffffffffffffffffffffff167f03dec9cb5eb28fc88294be525eef5c4e1c3f2ca49fbe9c31a5ae6f11945aaec185856040516104bd9291906107f6565b60405180910390a35050505050565b600081600160008573ffffffffffffffffffffffffffffffffffffffff1673ffffffffffffffffffffffffffffffffffffffff1681526020019081526020016000205414905092915050565b6000600360008473ffffffffffffffffffffffffffffffffffffffff1673ffffffffffffffffffffffffffffffffffffffff16815260200190815260200160002060008381526020019081526020016000205442101580156105c95750600460008473ffffffffffffffffffffffffffffffffffffffff1673ffffffffffffffffffffffffffffffffffffffff16815260200190815260200160002060008381526020019081526020016000205442105b905092915050565b6000813590506105e0816108f1565b92915050565b6000815190506105f5816108f1565b92915050565b60008135905061060a81610908565b92915050565b60006020828403121561062257600080fd5b6000610630848285016105e6565b91505092915050565b600080600080600060a0868803121561065157600080fd5b600061065f888289016105d1565b9550506020610670888289016105fb565b9450506040610681888289016105fb565b9350506060610692888289016105fb565b92505060806106a3888289016105fb565b9150509295509295909350565b6000602082840312156106c257600080fd5b60006106d0848285016105fb565b91505092915050565b6106e281610842565b82525050565b60006106f560178361081f565b915061070082610876565b602082019050919050565b6000610718600a8361081f565b91506107238261089f565b602082019050919050565b600061073b60098361081f565b9150610746826108c8565b602082019050919050565b61075a8161086c565b82525050565b600060208201905061077560008301846106d9565b92915050565b60006020820190508181036000830152610794816106e8565b9050919050565b600060208201905081810360008301526107b48161070b565b9050919050565b600060208201905081810360008301526107d48161072e565b9050919050565b60006020820190506107f06000830184610751565b92915050565b600060408201905061080b6000830185610751565b6108186020830184610751565b9392505050565b600082825260208201905092915050565b600061083b8261084c565b9050919050565b6000819050919050565b600073ffffffffffffffffffffffffffffffffffffffff82169050919050565b6000819050919050565b7f41756374696f6e20616c72656164792073746172746564000000000000000000600082015250565b7f4f6e6c792041646d696e00000000000000000000000000000000000000000000600082015250565b7f4e6f74206f776e65720000000000000000000000000000000000000000000000600082015250565b6108fa81610830565b811461090557600080fd5b50565b6109118161086c565b811461091c57600080fd5b5056fea2646970667358221220a409bbb0dfc716cbfbbbb755612d4b7306900f35e24299f53d95a6a74ab0488664736f6c63430008030033",
  "linkReferences": {},
  "deployedLinkReferences": {}
}