{
  "_format": "hh-sol-artifact-1",
  "contractName": "MarketPlace",
  "sourceName": "contracts/MarketPlace.sol",
  "abi": [
    {
      "inputs": [],
      "stateMutability": "nonpayable",
      "type": "constructor"
    },
    {
      "anonymous": false,
      "inputs": [
        {
          "indexed": true,
          "internalType": "address",
          "name": "erc721",
          "type": "address"
        },
        {
          "indexed": true,
          "internalType": "uint256",
          "name": "tokenId",
          "type": "uint256"
        },
        {
          "indexed": true,
          "internalType": "address",
          "name": "bidder",
          "type": "address"
        },
        {
          "indexed": false,
          "internalType": "uint256",
          "name": "bid",
          "type": "uint256"
        }
      ],
      "name": "Bid",
      "type": "event"
    },
    {
      "anonymous": false,
      "inputs": [
        {
          "indexed": true,
          "internalType": "address",
          "name": "erc721",
          "type": "address"
        },
        {
          "indexed": true,
          "internalType": "uint256",
          "name": "tokenId",
          "type": "uint256"
        },
        {
          "indexed": true,
          "internalType": "address",
          "name": "bidder",
          "type": "address"
        },
        {
          "indexed": false,
          "internalType": "uint256",
          "name": "bid",
          "type": "uint256"
        },
        {
          "indexed": false,
          "internalType": "address",
          "name": "formerOwner",
          "type": "address"
        }
      ],
      "name": "Claimed",
      "type": "event"
    },
    {
      "anonymous": false,
      "inputs": [
        {
          "indexed": true,
          "internalType": "address",
          "name": "erc721",
          "type": "address"
        },
        {
          "indexed": true,
          "internalType": "uint256",
          "name": "tokenId",
          "type": "uint256"
        },
        {
          "indexed": false,
          "internalType": "uint256",
          "name": "startDate",
          "type": "uint256"
        },
        {
          "indexed": false,
          "internalType": "uint256",
          "name": "endDate",
          "type": "uint256"
        }
      ],
      "name": "Listed",
      "type": "event"
    },
    {
      "inputs": [],
      "name": "ADMIN_ROLE",
      "outputs": [
        {
          "internalType": "bytes32",
          "name": "",
          "type": "bytes32"
        }
      ],
      "stateMutability": "view",
      "type": "function"
    },
    {
      "inputs": [
        {
          "internalType": "address",
          "name": "erc721",
          "type": "address"
        },
        {
          "internalType": "uint256",
          "name": "tokenId",
          "type": "uint256"
        }
      ],
      "name": "bid",
      "outputs": [],
      "stateMutability": "payable",
      "type": "function"
    },
    {
      "inputs": [
        {
          "internalType": "address",
          "name": "erc721",
          "type": "address"
        },
        {
          "internalType": "uint256",
          "name": "tokenId",
          "type": "uint256"
        }
      ],
      "name": "claim",
      "outputs": [],
      "stateMutability": "nonpayable",
      "type": "function"
    },
    {
      "inputs": [
        {
          "internalType": "address",
          "name": "erc721",
          "type": "address"
        },
        {
          "internalType": "uint256",
          "name": "tokenId",
          "type": "uint256"
        }
      ],
      "name": "forceAuctionToEnd",
      "outputs": [],
      "stateMutability": "nonpayable",
      "type": "function"
    },
    {
      "inputs": [
        {
          "internalType": "address",
          "name": "erc721",
          "type": "address"
        },
        {
          "internalType": "uint256",
          "name": "tokenId",
          "type": "uint256"
        }
      ],
      "name": "getBids",
      "outputs": [
        {
          "internalType": "address",
          "name": "",
          "type": "address"
        },
        {
          "internalType": "uint256",
          "name": "",
          "type": "uint256"
        },
        {
          "internalType": "address[]",
          "name": "",
          "type": "address[]"
        },
        {
          "internalType": "uint256[]",
          "name": "",
          "type": "uint256[]"
        }
      ],
      "stateMutability": "view",
      "type": "function"
    },
    {
      "inputs": [
        {
          "internalType": "address",
          "name": "erc721",
          "type": "address"
        },
        {
          "internalType": "uint256",
          "name": "tokenId",
          "type": "uint256"
        }
      ],
      "name": "isListed",
      "outputs": [
        {
          "internalType": "bool",
          "name": "",
          "type": "bool"
        }
      ],
      "stateMutability": "view",
      "type": "function"
    },
    {
      "inputs": [
        {
          "internalType": "address",
          "name": "erc721",
          "type": "address"
        },
        {
          "internalType": "uint256",
          "name": "tokenId",
          "type": "uint256"
        },
        {
          "internalType": "uint256",
          "name": "_startDate",
          "type": "uint256"
        },
        {
          "internalType": "uint256",
          "name": "_endDate",
          "type": "uint256"
        },
        {
          "internalType": "uint256",
          "name": "_minBid",
          "type": "uint256"
        }
      ],
      "name": "list",
      "outputs": [],
      "stateMutability": "payable",
      "type": "function"
    },
    {
      "inputs": [
        {
          "internalType": "uint256",
          "name": "newFee",
          "type": "uint256"
        }
      ],
      "name": "setListingFee",
      "outputs": [],
      "stateMutability": "nonpayable",
      "type": "function"
    }
  ],
  "bytecode": "0x6080604052662386f26fc1000060005534801561001b57600080fd5b5033600260006101000a81548173ffffffffffffffffffffffffffffffffffffffff021916908373ffffffffffffffffffffffffffffffffffffffff1602179055507fa49807205ce4d355092ef5a8a18f56e8913cf4a201fbe287825b095693c2177560016000600260009054906101000a900473ffffffffffffffffffffffffffffffffffffffff1673ffffffffffffffffffffffffffffffffffffffff1673ffffffffffffffffffffffffffffffffffffffff168152602001908152602001600020819055506122ad806100f26000396000f3fe60806040526004361061007b5760003560e01c8063b5f38dce1161004e578063b5f38dce14610119578063b8bf029b14610159578063c51abce014610175578063cdb3cd251461019e5761007b565b8063131dbd091461008057806359d667a5146100a957806375b238fc146100c5578063aad3ec96146100f0575b600080fd5b34801561008c57600080fd5b506100a760048036038101906100a29190611865565b6101db565b005b6100c360048036038101906100be91906117b2565b610250565b005b3480156100d157600080fd5b506100da6108d5565b6040516100e79190611caa565b60405180910390f35b3480156100fc57600080fd5b50610117600480360381019061011291906117b2565b6108f9565b005b34801561012557600080fd5b50610140600480360381019061013b91906117b2565b610e84565b6040516101509493929190611c3c565b60405180910390f35b610173600480360381019061016e91906117ee565b6110d7565b005b34801561018157600080fd5b5061019c600480360381019061019791906117b2565b611524565b005b3480156101aa57600080fd5b506101c560048036038101906101c091906117b2565b6115e8565b6040516101d29190611c8f565b60405180910390f35b33610206817fa49807205ce4d355092ef5a8a18f56e8913cf4a201fbe287825b095693c21775611645565b610245576040517f08c379a000000000000000000000000000000000000000000000000000000000815260040161023c90611da5565b60405180910390fd5b816000819055505050565b61025a82826115e8565b610299576040517f08c379a000000000000000000000000000000000000000000000000000000000815260040161029090611e05565b60405180910390fd5b6102a38282611691565b6102e2576040517f08c379a00000000000000000000000000000000000000000000000000000000081526004016102d990611e65565b60405180910390fd5b600073ffffffffffffffffffffffffffffffffffffffff16600760008473ffffffffffffffffffffffffffffffffffffffff1673ffffffffffffffffffffffffffffffffffffffff168152602001908152602001600020600083815260200190815260200160002060009054906101000a900473ffffffffffffffffffffffffffffffffffffffff1673ffffffffffffffffffffffffffffffffffffffff16141561041e5734600560008473ffffffffffffffffffffffffffffffffffffffff1673ffffffffffffffffffffffffffffffffffffffff16815260200190815260200160002060008381526020019081526020016000205410610419576040517f08c379a000000000000000000000000000000000000000000000000000000000815260040161041090611d85565b60405180910390fd5b6104b1565b34600660008473ffffffffffffffffffffffffffffffffffffffff1673ffffffffffffffffffffffffffffffffffffffff168152602001908152602001600020600083815260200190815260200160002054106104b0576040517f08c379a00000000000000000000000000000000000000000000000000000000081526004016104a790611d85565b60405180910390fd5b5b6000600760008473ffffffffffffffffffffffffffffffffffffffff1673ffffffffffffffffffffffffffffffffffffffff168152602001908152602001600020600083815260200190815260200160002060009054906101000a900473ffffffffffffffffffffffffffffffffffffffff1690506000600660008573ffffffffffffffffffffffffffffffffffffffff1673ffffffffffffffffffffffffffffffffffffffff168152602001908152602001600020600084815260200190815260200160002054905034600660008673ffffffffffffffffffffffffffffffffffffffff1673ffffffffffffffffffffffffffffffffffffffff16815260200190815260200160002060008581526020019081526020016000208190555033600760008673ffffffffffffffffffffffffffffffffffffffff1673ffffffffffffffffffffffffffffffffffffffff168152602001908152602001600020600085815260200190815260200160002060006101000a81548173ffffffffffffffffffffffffffffffffffffffff021916908373ffffffffffffffffffffffffffffffffffffffff160217905550600860008573ffffffffffffffffffffffffffffffffffffffff1673ffffffffffffffffffffffffffffffffffffffff1681526020019081526020016000206000848152602001908152602001600020349080600181540180825580915050600190039060005260206000200160009091909190915055600960008573ffffffffffffffffffffffffffffffffffffffff1673ffffffffffffffffffffffffffffffffffffffff1681526020019081526020016000206000848152602001908152602001600020339080600181540180825580915050600190039060005260206000200160009091909190916101000a81548173ffffffffffffffffffffffffffffffffffffffff021916908373ffffffffffffffffffffffffffffffffffffffff160217905550600073ffffffffffffffffffffffffffffffffffffffff168273ffffffffffffffffffffffffffffffffffffffff16146108695760008273ffffffffffffffffffffffffffffffffffffffff16826040516107e190611bf0565b60006040518083038185875af1925050503d806000811461081e576040519150601f19603f3d011682016040523d82523d6000602084013e610823565b606091505b5050905080610867576040517f08c379a000000000000000000000000000000000000000000000000000000000815260040161085e90611de5565b60405180910390fd5b505b3373ffffffffffffffffffffffffffffffffffffffff16838573ffffffffffffffffffffffffffffffffffffffff167f7f863cab1b412077be133ef69af7df0e6aca4c67ff7d89db843d601f124a025d346040516108c79190611e85565b60405180910390a450505050565b7fa49807205ce4d355092ef5a8a18f56e8913cf4a201fbe287825b095693c2177581565b60008273ffffffffffffffffffffffffffffffffffffffff16636352211e836040518263ffffffff1660e01b81526004016109349190611e85565b60206040518083038186803b15801561094c57600080fd5b505afa158015610960573d6000803e3d6000fd5b505050506040513d601f19601f820116820180604052508101906109849190611789565b9050600460008473ffffffffffffffffffffffffffffffffffffffff1673ffffffffffffffffffffffffffffffffffffffff1681526020019081526020016000206000838152602001908152602001600020544211610a18576040517f08c379a0000000000000000000000000000000000000000000000000000000008152600401610a0f90611e45565b60405180910390fd5b3373ffffffffffffffffffffffffffffffffffffffff16600760008573ffffffffffffffffffffffffffffffffffffffff1673ffffffffffffffffffffffffffffffffffffffff168152602001908152602001600020600084815260200190815260200160002060009054906101000a900473ffffffffffffffffffffffffffffffffffffffff1673ffffffffffffffffffffffffffffffffffffffff1614610af6576040517f08c379a0000000000000000000000000000000000000000000000000000000008152600401610aed90611ce5565b60405180910390fd5b3373ffffffffffffffffffffffffffffffffffffffff168173ffffffffffffffffffffffffffffffffffffffff161415610b65576040517f08c379a0000000000000000000000000000000000000000000000000000000008152600401610b5c90611d65565b60405180910390fd5b8273ffffffffffffffffffffffffffffffffffffffff166323b872dd8233856040518463ffffffff1660e01b8152600401610ba293929190611c05565b600060405180830381600087803b158015610bbc57600080fd5b505af1158015610bd0573d6000803e3d6000fd5b505050503373ffffffffffffffffffffffffffffffffffffffff168373ffffffffffffffffffffffffffffffffffffffff16636352211e846040518263ffffffff1660e01b8152600401610c249190611e85565b60206040518083038186803b158015610c3c57600080fd5b505afa158015610c50573d6000803e3d6000fd5b505050506040513d601f19601f82011682018060405250810190610c749190611789565b73ffffffffffffffffffffffffffffffffffffffff1614610cca576040517f08c379a0000000000000000000000000000000000000000000000000000000008152600401610cc190611d05565b60405180910390fd5b60008173ffffffffffffffffffffffffffffffffffffffff16600660008673ffffffffffffffffffffffffffffffffffffffff1673ffffffffffffffffffffffffffffffffffffffff168152602001908152602001600020600085815260200190815260200160002054604051610d4090611bf0565b60006040518083038185875af1925050503d8060008114610d7d576040519150601f19603f3d011682016040523d82523d6000602084013e610d82565b606091505b5050905080610dc6576040517f08c379a0000000000000000000000000000000000000000000000000000000008152600401610dbd90611de5565b60405180910390fd5b3373ffffffffffffffffffffffffffffffffffffffff16838573ffffffffffffffffffffffffffffffffffffffff167f2ff23a03adcd87db2418d745f5b3f8a4b4fbfe715e10721f40bab918802a43f7600660008973ffffffffffffffffffffffffffffffffffffffff1673ffffffffffffffffffffffffffffffffffffffff16815260200190815260200160002060008881526020019081526020016000205486604051610e76929190611ea0565b60405180910390a450505050565b600080606080600760008773ffffffffffffffffffffffffffffffffffffffff1673ffffffffffffffffffffffffffffffffffffffff168152602001908152602001600020600086815260200190815260200160002060009054906101000a900473ffffffffffffffffffffffffffffffffffffffff16600660008873ffffffffffffffffffffffffffffffffffffffff1673ffffffffffffffffffffffffffffffffffffffff168152602001908152602001600020600087815260200190815260200160002054600960008973ffffffffffffffffffffffffffffffffffffffff1673ffffffffffffffffffffffffffffffffffffffff1681526020019081526020016000206000888152602001908152602001600020600860008a73ffffffffffffffffffffffffffffffffffffffff1673ffffffffffffffffffffffffffffffffffffffff16815260200190815260200160002060008981526020019081526020016000208180548060200260200160405190810160405280929190818152602001828054801561106d57602002820191906000526020600020905b8160009054906101000a900473ffffffffffffffffffffffffffffffffffffffff1673ffffffffffffffffffffffffffffffffffffffff1681526020019060010190808311611023575b50505050509150808054806020026020016040519081016040528092919081815260200182805480156110bf57602002820191906000526020600020905b8154815260200190600101908083116110ab575b50505050509050935093509350935092959194509250565b60005434101561111c576040517f08c379a000000000000000000000000000000000000000000000000000000000815260040161111390611d45565b60405180910390fd5b3373ffffffffffffffffffffffffffffffffffffffff168573ffffffffffffffffffffffffffffffffffffffff16636352211e866040518263ffffffff1660e01b815260040161116c9190611e85565b60206040518083038186803b15801561118457600080fd5b505afa158015611198573d6000803e3d6000fd5b505050506040513d601f19601f820116820180604052508101906111bc9190611789565b73ffffffffffffffffffffffffffffffffffffffff1614611212576040517f08c379a000000000000000000000000000000000000000000000000000000000815260040161120990611dc5565b60405180910390fd5b61121c8585611691565b1561125c576040517f08c379a000000000000000000000000000000000000000000000000000000000815260040161125390611d25565b60405180910390fd5b61126685856115e8565b156112a6576040517f08c379a000000000000000000000000000000000000000000000000000000000815260040161129d90611e25565b60405180910390fd5b8142106112e8576040517f08c379a00000000000000000000000000000000000000000000000000000000081526004016112df90611cc5565b60405180910390fd5b82600360008773ffffffffffffffffffffffffffffffffffffffff1673ffffffffffffffffffffffffffffffffffffffff16815260200190815260200160002060008681526020019081526020016000208190555081600460008773ffffffffffffffffffffffffffffffffffffffff1673ffffffffffffffffffffffffffffffffffffffff16815260200190815260200160002060008681526020019081526020016000208190555080600560008773ffffffffffffffffffffffffffffffffffffffff1673ffffffffffffffffffffffffffffffffffffffff16815260200190815260200160002060008681526020019081526020016000208190555080600660008773ffffffffffffffffffffffffffffffffffffffff1673ffffffffffffffffffffffffffffffffffffffff1681526020019081526020016000206000868152602001908152602001600020819055506000600760008773ffffffffffffffffffffffffffffffffffffffff1673ffffffffffffffffffffffffffffffffffffffff168152602001908152602001600020600086815260200190815260200160002060006101000a81548173ffffffffffffffffffffffffffffffffffffffff021916908373ffffffffffffffffffffffffffffffffffffffff160217905550838573ffffffffffffffffffffffffffffffffffffffff167f03dec9cb5eb28fc88294be525eef5c4e1c3f2ca49fbe9c31a5ae6f11945aaec18585604051611515929190611ec9565b60405180910390a35050505050565b3361154f817fa49807205ce4d355092ef5a8a18f56e8913cf4a201fbe287825b095693c21775611645565b61158e576040517f08c379a000000000000000000000000000000000000000000000000000000000815260040161158590611da5565b60405180910390fd5b42600460008573ffffffffffffffffffffffffffffffffffffffff1673ffffffffffffffffffffffffffffffffffffffff168152602001908152602001600020600084815260200190815260200160002081905550505050565b600080600360008573ffffffffffffffffffffffffffffffffffffffff1673ffffffffffffffffffffffffffffffffffffffff16815260200190815260200160002060008481526020019081526020016000205411905092915050565b600081600160008573ffffffffffffffffffffffffffffffffffffffff1673ffffffffffffffffffffffffffffffffffffffff1681526020019081526020016000205414905092915050565b6000600360008473ffffffffffffffffffffffffffffffffffffffff1673ffffffffffffffffffffffffffffffffffffffff16815260200190815260200160002060008381526020019081526020016000205442101580156117425750600460008473ffffffffffffffffffffffffffffffffffffffff1673ffffffffffffffffffffffffffffffffffffffff16815260200190815260200160002060008381526020019081526020016000205442105b905092915050565b60008135905061175981612249565b92915050565b60008151905061176e81612249565b92915050565b60008135905061178381612260565b92915050565b60006020828403121561179b57600080fd5b60006117a98482850161175f565b91505092915050565b600080604083850312156117c557600080fd5b60006117d38582860161174a565b92505060206117e485828601611774565b9150509250929050565b600080600080600060a0868803121561180657600080fd5b60006118148882890161174a565b955050602061182588828901611774565b945050604061183688828901611774565b935050606061184788828901611774565b925050608061185888828901611774565b9150509295509295909350565b60006020828403121561187757600080fd5b600061188584828501611774565b91505092915050565b600061189a83836118cd565b60208301905092915050565b60006118b28383611bd2565b60208301905092915050565b6118c781611fd2565b82525050565b6118d681611f80565b82525050565b6118e581611f80565b82525050565b60006118f682611f12565b6119008185611f42565b935061190b83611ef2565b8060005b8381101561193c578151611923888261188e565b975061192e83611f28565b92505060018101905061190f565b5085935050505092915050565b600061195482611f1d565b61195e8185611f53565b935061196983611f02565b8060005b8381101561199a57815161198188826118a6565b975061198c83611f35565b92505060018101905061196d565b5085935050505092915050565b6119b081611f92565b82525050565b6119bf81611f9e565b82525050565b60006119d2600d83611f6f565b91506119dd82612008565b602082019050919050565b60006119f5601983611f6f565b9150611a0082612031565b602082019050919050565b6000611a18601583611f6f565b9150611a238261205a565b602082019050919050565b6000611a3b600f83611f6f565b9150611a4682612083565b602082019050919050565b6000611a5e601483611f6f565b9150611a69826120ac565b602082019050919050565b6000611a81601683611f6f565b9150611a8c826120d5565b602082019050919050565b6000611aa4600783611f6f565b9150611aaf826120fe565b602082019050919050565b6000611ac7600a83611f6f565b9150611ad282612127565b602082019050919050565b6000611aea600983611f6f565b9150611af582612150565b602082019050919050565b6000611b0d600083611f64565b9150611b1882612179565b600082019050919050565b6000611b30601083611f6f565b9150611b3b8261217c565b602082019050919050565b6000611b53600a83611f6f565b9150611b5e826121a5565b602082019050919050565b6000611b76600e83611f6f565b9150611b81826121ce565b602082019050919050565b6000611b99600c83611f6f565b9150611ba4826121f7565b602082019050919050565b6000611bbc600b83611f6f565b9150611bc782612220565b602082019050919050565b611bdb81611fc8565b82525050565b611bea81611fc8565b82525050565b6000611bfb82611b00565b9150819050919050565b6000606082019050611c1a60008301866118dc565b611c2760208301856118be565b611c346040830184611be1565b949350505050565b6000608082019050611c5160008301876118dc565b611c5e6020830186611be1565b8181036040830152611c7081856118eb565b90508181036060830152611c848184611949565b905095945050505050565b6000602082019050611ca460008301846119a7565b92915050565b6000602082019050611cbf60008301846119b6565b92915050565b60006020820190508181036000830152611cde816119c5565b9050919050565b60006020820190508181036000830152611cfe816119e8565b9050919050565b60006020820190508181036000830152611d1e81611a0b565b9050919050565b60006020820190508181036000830152611d3e81611a2e565b9050919050565b60006020820190508181036000830152611d5e81611a51565b9050919050565b60006020820190508181036000830152611d7e81611a74565b9050919050565b60006020820190508181036000830152611d9e81611a97565b9050919050565b60006020820190508181036000830152611dbe81611aba565b9050919050565b60006020820190508181036000830152611dde81611add565b9050919050565b60006020820190508181036000830152611dfe81611b23565b9050919050565b60006020820190508181036000830152611e1e81611b46565b9050919050565b60006020820190508181036000830152611e3e81611b69565b9050919050565b60006020820190508181036000830152611e5e81611b8c565b9050919050565b60006020820190508181036000830152611e7e81611baf565b9050919050565b6000602082019050611e9a6000830184611be1565b92915050565b6000604082019050611eb56000830185611be1565b611ec260208301846118dc565b9392505050565b6000604082019050611ede6000830185611be1565b611eeb6020830184611be1565b9392505050565b6000819050602082019050919050565b6000819050602082019050919050565b600081519050919050565b600081519050919050565b6000602082019050919050565b6000602082019050919050565b600082825260208201905092915050565b600082825260208201905092915050565b600081905092915050565b600082825260208201905092915050565b6000611f8b82611fa8565b9050919050565b60008115159050919050565b6000819050919050565b600073ffffffffffffffffffffffffffffffffffffffff82169050919050565b6000819050919050565b6000611fdd82611fe4565b9050919050565b6000611fef82611ff6565b9050919050565b600061200182611fa8565b9050919050565b7f696e762e20656e64206461746500000000000000000000000000000000000000600082015250565b7f796f75277265206e6f7420686967686573742062696464657200000000000000600082015250565b7f746f6b656e207472616e73666572206661696c65640000000000000000000000600082015250565b7f616c726561647920737461727465640000000000000000000000000000000000600082015250565b7f70617920746865206c697374696e672066656573000000000000000000000000600082015250565b7f616c726561647920636c61696d656420627920796f7500000000000000000000600082015250565b7f746f6f206c6f7700000000000000000000000000000000000000000000000000600082015250565b7f4f6e6c792041646d696e00000000000000000000000000000000000000000000600082015250565b7f4e6f74206f776e65720000000000000000000000000000000000000000000000600082015250565b50565b7f5472616e73666572206661696c65642e00000000000000000000000000000000600082015250565b7f6e6f74206c697374656400000000000000000000000000000000000000000000600082015250565b7f616c7265616479206c6973746564000000000000000000000000000000000000600082015250565b7f7374696c6c206163746976650000000000000000000000000000000000000000600082015250565b7f6e6f742073746172746564000000000000000000000000000000000000000000600082015250565b61225281611f80565b811461225d57600080fd5b50565b61226981611fc8565b811461227457600080fd5b5056fea2646970667358221220be8fbd9300944dcec86c1eb5db7bf7b9f4bc380ac13e43a64ade5d369c0a42be64736f6c63430008030033",
  "linkReferences": {},
  "deployedLinkReferences": {}
}