{
  "_format": "hh-sol-artifact-1",
  "contractName": "MarketPlace",
  "sourceName": "contracts/MarketPlace.sol",
  "abi": [
    {
      "inputs": [],
      "stateMutability": "nonpayable",
      "type": "constructor"
    },
    {
      "anonymous": false,
      "inputs": [
        {
          "indexed": true,
          "internalType": "address",
          "name": "erc721",
          "type": "address"
        },
        {
          "indexed": true,
          "internalType": "uint256",
          "name": "tokenId",
          "type": "uint256"
        },
        {
          "indexed": true,
          "internalType": "address",
          "name": "bidder",
          "type": "address"
        },
        {
          "indexed": false,
          "internalType": "uint256",
          "name": "bid",
          "type": "uint256"
        }
      ],
      "name": "Bid",
      "type": "event"
    },
    {
      "anonymous": false,
      "inputs": [
        {
          "indexed": true,
          "internalType": "address",
          "name": "erc721",
          "type": "address"
        },
        {
          "indexed": true,
          "internalType": "uint256",
          "name": "tokenId",
          "type": "uint256"
        },
        {
          "indexed": true,
          "internalType": "address",
          "name": "bidder",
          "type": "address"
        },
        {
          "indexed": false,
          "internalType": "uint256",
          "name": "bid",
          "type": "uint256"
        },
        {
          "indexed": false,
          "internalType": "address",
          "name": "formerOwner",
          "type": "address"
        }
      ],
      "name": "Claimed",
      "type": "event"
    },
    {
      "anonymous": false,
      "inputs": [
        {
          "indexed": true,
          "internalType": "address",
          "name": "erc721",
          "type": "address"
        },
        {
          "indexed": true,
          "internalType": "uint256",
          "name": "tokenId",
          "type": "uint256"
        },
        {
          "indexed": false,
          "internalType": "uint256",
          "name": "startDate",
          "type": "uint256"
        },
        {
          "indexed": false,
          "internalType": "uint256",
          "name": "endDate",
          "type": "uint256"
        }
      ],
      "name": "Listed",
      "type": "event"
    },
    {
      "inputs": [],
      "name": "ADMIN_ROLE",
      "outputs": [
        {
          "internalType": "bytes32",
          "name": "",
          "type": "bytes32"
        }
      ],
      "stateMutability": "view",
      "type": "function"
    },
    {
      "inputs": [
        {
          "internalType": "address",
          "name": "erc721",
          "type": "address"
        },
        {
          "internalType": "uint256",
          "name": "tokenId",
          "type": "uint256"
        }
      ],
      "name": "bid",
      "outputs": [],
      "stateMutability": "payable",
      "type": "function"
    },
    {
      "inputs": [
        {
          "internalType": "address",
          "name": "erc721",
          "type": "address"
        },
        {
          "internalType": "uint256",
          "name": "tokenId",
          "type": "uint256"
        }
      ],
      "name": "claim",
      "outputs": [],
      "stateMutability": "nonpayable",
      "type": "function"
    },
    {
      "inputs": [
        {
          "internalType": "address",
          "name": "erc721",
          "type": "address"
        },
        {
          "internalType": "uint256",
          "name": "tokenId",
          "type": "uint256"
        }
      ],
      "name": "forceAuctionToEnd",
      "outputs": [],
      "stateMutability": "nonpayable",
      "type": "function"
    },
    {
      "inputs": [
        {
          "internalType": "address",
          "name": "erc721",
          "type": "address"
        },
        {
          "internalType": "uint256",
          "name": "tokenId",
          "type": "uint256"
        }
      ],
      "name": "getBids",
      "outputs": [
        {
          "internalType": "address",
          "name": "",
          "type": "address"
        },
        {
          "internalType": "uint256",
          "name": "",
          "type": "uint256"
        },
        {
          "internalType": "address[]",
          "name": "",
          "type": "address[]"
        },
        {
          "internalType": "uint256[]",
          "name": "",
          "type": "uint256[]"
        }
      ],
      "stateMutability": "view",
      "type": "function"
    },
    {
      "inputs": [
        {
          "internalType": "address",
          "name": "erc721",
          "type": "address"
        },
        {
          "internalType": "uint256",
          "name": "tokenId",
          "type": "uint256"
        }
      ],
      "name": "isListed",
      "outputs": [
        {
          "internalType": "bool",
          "name": "",
          "type": "bool"
        }
      ],
      "stateMutability": "view",
      "type": "function"
    },
    {
      "inputs": [
        {
          "internalType": "address",
          "name": "erc721",
          "type": "address"
        },
        {
          "internalType": "uint256",
          "name": "tokenId",
          "type": "uint256"
        },
        {
          "internalType": "uint256",
          "name": "_startDate",
          "type": "uint256"
        },
        {
          "internalType": "uint256",
          "name": "_endDate",
          "type": "uint256"
        },
        {
          "internalType": "uint256",
          "name": "_minBid",
          "type": "uint256"
        }
      ],
      "name": "list",
      "outputs": [],
      "stateMutability": "payable",
      "type": "function"
    },
    {
      "inputs": [
        {
          "internalType": "uint256",
          "name": "newFee",
          "type": "uint256"
        }
      ],
      "name": "setListingFee",
      "outputs": [],
      "stateMutability": "nonpayable",
      "type": "function"
    }
  ],
  "bytecode": "0x6080604052662386f26fc1000060005534801561001b57600080fd5b5033600260006101000a81548173ffffffffffffffffffffffffffffffffffffffff021916908373ffffffffffffffffffffffffffffffffffffffff1602179055507fa49807205ce4d355092ef5a8a18f56e8913cf4a201fbe287825b095693c2177560016000600260009054906101000a900473ffffffffffffffffffffffffffffffffffffffff1673ffffffffffffffffffffffffffffffffffffffff1673ffffffffffffffffffffffffffffffffffffffff168152602001908152602001600020819055506122f6806100f26000396000f3fe60806040526004361061007b5760003560e01c8063b5f38dce1161004e578063b5f38dce14610119578063b8bf029b14610159578063c51abce014610175578063cdb3cd251461019e5761007b565b8063131dbd091461008057806359d667a5146100a957806375b238fc146100c5578063aad3ec96146100f0575b600080fd5b34801561008c57600080fd5b506100a760048036038101906100a291906118ae565b6101db565b005b6100c360048036038101906100be91906117fb565b610250565b005b3480156100d157600080fd5b506100da6108d5565b6040516100e79190611cf3565b60405180910390f35b3480156100fc57600080fd5b50610117600480360381019061011291906117fb565b6108f9565b005b34801561012557600080fd5b50610140600480360381019061013b91906117fb565b610ecd565b6040516101509493929190611c85565b60405180910390f35b610173600480360381019061016e9190611837565b611120565b005b34801561018157600080fd5b5061019c600480360381019061019791906117fb565b61156d565b005b3480156101aa57600080fd5b506101c560048036038101906101c091906117fb565b611631565b6040516101d29190611cd8565b60405180910390f35b33610206817fa49807205ce4d355092ef5a8a18f56e8913cf4a201fbe287825b095693c2177561168e565b610245576040517f08c379a000000000000000000000000000000000000000000000000000000000815260040161023c90611dee565b60405180910390fd5b816000819055505050565b61025a8282611631565b610299576040517f08c379a000000000000000000000000000000000000000000000000000000000815260040161029090611e4e565b60405180910390fd5b6102a382826116da565b6102e2576040517f08c379a00000000000000000000000000000000000000000000000000000000081526004016102d990611eae565b60405180910390fd5b600073ffffffffffffffffffffffffffffffffffffffff16600760008473ffffffffffffffffffffffffffffffffffffffff1673ffffffffffffffffffffffffffffffffffffffff168152602001908152602001600020600083815260200190815260200160002060009054906101000a900473ffffffffffffffffffffffffffffffffffffffff1673ffffffffffffffffffffffffffffffffffffffff16141561041e5734600560008473ffffffffffffffffffffffffffffffffffffffff1673ffffffffffffffffffffffffffffffffffffffff16815260200190815260200160002060008381526020019081526020016000205410610419576040517f08c379a000000000000000000000000000000000000000000000000000000000815260040161041090611dce565b60405180910390fd5b6104b1565b34600660008473ffffffffffffffffffffffffffffffffffffffff1673ffffffffffffffffffffffffffffffffffffffff168152602001908152602001600020600083815260200190815260200160002054106104b0576040517f08c379a00000000000000000000000000000000000000000000000000000000081526004016104a790611dce565b60405180910390fd5b5b6000600760008473ffffffffffffffffffffffffffffffffffffffff1673ffffffffffffffffffffffffffffffffffffffff168152602001908152602001600020600083815260200190815260200160002060009054906101000a900473ffffffffffffffffffffffffffffffffffffffff1690506000600660008573ffffffffffffffffffffffffffffffffffffffff1673ffffffffffffffffffffffffffffffffffffffff168152602001908152602001600020600084815260200190815260200160002054905034600660008673ffffffffffffffffffffffffffffffffffffffff1673ffffffffffffffffffffffffffffffffffffffff16815260200190815260200160002060008581526020019081526020016000208190555033600760008673ffffffffffffffffffffffffffffffffffffffff1673ffffffffffffffffffffffffffffffffffffffff168152602001908152602001600020600085815260200190815260200160002060006101000a81548173ffffffffffffffffffffffffffffffffffffffff021916908373ffffffffffffffffffffffffffffffffffffffff160217905550600860008573ffffffffffffffffffffffffffffffffffffffff1673ffffffffffffffffffffffffffffffffffffffff1681526020019081526020016000206000848152602001908152602001600020349080600181540180825580915050600190039060005260206000200160009091909190915055600960008573ffffffffffffffffffffffffffffffffffffffff1673ffffffffffffffffffffffffffffffffffffffff1681526020019081526020016000206000848152602001908152602001600020339080600181540180825580915050600190039060005260206000200160009091909190916101000a81548173ffffffffffffffffffffffffffffffffffffffff021916908373ffffffffffffffffffffffffffffffffffffffff160217905550600073ffffffffffffffffffffffffffffffffffffffff168273ffffffffffffffffffffffffffffffffffffffff16146108695760008273ffffffffffffffffffffffffffffffffffffffff16826040516107e190611c39565b60006040518083038185875af1925050503d806000811461081e576040519150601f19603f3d011682016040523d82523d6000602084013e610823565b606091505b5050905080610867576040517f08c379a000000000000000000000000000000000000000000000000000000000815260040161085e90611e2e565b60405180910390fd5b505b3373ffffffffffffffffffffffffffffffffffffffff16838573ffffffffffffffffffffffffffffffffffffffff167f7f863cab1b412077be133ef69af7df0e6aca4c67ff7d89db843d601f124a025d346040516108c79190611ece565b60405180910390a450505050565b7fa49807205ce4d355092ef5a8a18f56e8913cf4a201fbe287825b095693c2177581565b6109038282611631565b610942576040517f08c379a000000000000000000000000000000000000000000000000000000000815260040161093990611e4e565b60405180910390fd5b60008273ffffffffffffffffffffffffffffffffffffffff16636352211e836040518263ffffffff1660e01b815260040161097d9190611ece565b60206040518083038186803b15801561099557600080fd5b505afa1580156109a9573d6000803e3d6000fd5b505050506040513d601f19601f820116820180604052508101906109cd91906117d2565b9050600460008473ffffffffffffffffffffffffffffffffffffffff1673ffffffffffffffffffffffffffffffffffffffff1681526020019081526020016000206000838152602001908152602001600020544211610a61576040517f08c379a0000000000000000000000000000000000000000000000000000000008152600401610a5890611e8e565b60405180910390fd5b3373ffffffffffffffffffffffffffffffffffffffff16600760008573ffffffffffffffffffffffffffffffffffffffff1673ffffffffffffffffffffffffffffffffffffffff168152602001908152602001600020600084815260200190815260200160002060009054906101000a900473ffffffffffffffffffffffffffffffffffffffff1673ffffffffffffffffffffffffffffffffffffffff1614610b3f576040517f08c379a0000000000000000000000000000000000000000000000000000000008152600401610b3690611d2e565b60405180910390fd5b3373ffffffffffffffffffffffffffffffffffffffff168173ffffffffffffffffffffffffffffffffffffffff161415610bae576040517f08c379a0000000000000000000000000000000000000000000000000000000008152600401610ba590611dae565b60405180910390fd5b8273ffffffffffffffffffffffffffffffffffffffff166323b872dd8233856040518463ffffffff1660e01b8152600401610beb93929190611c4e565b600060405180830381600087803b158015610c0557600080fd5b505af1158015610c19573d6000803e3d6000fd5b505050503373ffffffffffffffffffffffffffffffffffffffff168373ffffffffffffffffffffffffffffffffffffffff16636352211e846040518263ffffffff1660e01b8152600401610c6d9190611ece565b60206040518083038186803b158015610c8557600080fd5b505afa158015610c99573d6000803e3d6000fd5b505050506040513d601f19601f82011682018060405250810190610cbd91906117d2565b73ffffffffffffffffffffffffffffffffffffffff1614610d13576040517f08c379a0000000000000000000000000000000000000000000000000000000008152600401610d0a90611d4e565b60405180910390fd5b60008173ffffffffffffffffffffffffffffffffffffffff16600660008673ffffffffffffffffffffffffffffffffffffffff1673ffffffffffffffffffffffffffffffffffffffff168152602001908152602001600020600085815260200190815260200160002054604051610d8990611c39565b60006040518083038185875af1925050503d8060008114610dc6576040519150601f19603f3d011682016040523d82523d6000602084013e610dcb565b606091505b5050905080610e0f576040517f08c379a0000000000000000000000000000000000000000000000000000000008152600401610e0690611e2e565b60405180910390fd5b3373ffffffffffffffffffffffffffffffffffffffff16838573ffffffffffffffffffffffffffffffffffffffff167f2ff23a03adcd87db2418d745f5b3f8a4b4fbfe715e10721f40bab918802a43f7600660008973ffffffffffffffffffffffffffffffffffffffff1673ffffffffffffffffffffffffffffffffffffffff16815260200190815260200160002060008881526020019081526020016000205486604051610ebf929190611ee9565b60405180910390a450505050565b600080606080600760008773ffffffffffffffffffffffffffffffffffffffff1673ffffffffffffffffffffffffffffffffffffffff168152602001908152602001600020600086815260200190815260200160002060009054906101000a900473ffffffffffffffffffffffffffffffffffffffff16600660008873ffffffffffffffffffffffffffffffffffffffff1673ffffffffffffffffffffffffffffffffffffffff168152602001908152602001600020600087815260200190815260200160002054600960008973ffffffffffffffffffffffffffffffffffffffff1673ffffffffffffffffffffffffffffffffffffffff1681526020019081526020016000206000888152602001908152602001600020600860008a73ffffffffffffffffffffffffffffffffffffffff1673ffffffffffffffffffffffffffffffffffffffff1681526020019081526020016000206000898152602001908152602001600020818054806020026020016040519081016040528092919081815260200182805480156110b657602002820191906000526020600020905b8160009054906101000a900473ffffffffffffffffffffffffffffffffffffffff1673ffffffffffffffffffffffffffffffffffffffff168152602001906001019080831161106c575b505050505091508080548060200260200160405190810160405280929190818152602001828054801561110857602002820191906000526020600020905b8154815260200190600101908083116110f4575b50505050509050935093509350935092959194509250565b600054341015611165576040517f08c379a000000000000000000000000000000000000000000000000000000000815260040161115c90611d8e565b60405180910390fd5b3373ffffffffffffffffffffffffffffffffffffffff168573ffffffffffffffffffffffffffffffffffffffff16636352211e866040518263ffffffff1660e01b81526004016111b59190611ece565b60206040518083038186803b1580156111cd57600080fd5b505afa1580156111e1573d6000803e3d6000fd5b505050506040513d601f19601f8201168201806040525081019061120591906117d2565b73ffffffffffffffffffffffffffffffffffffffff161461125b576040517f08c379a000000000000000000000000000000000000000000000000000000000815260040161125290611e0e565b60405180910390fd5b61126585856116da565b156112a5576040517f08c379a000000000000000000000000000000000000000000000000000000000815260040161129c90611d6e565b60405180910390fd5b6112af8585611631565b156112ef576040517f08c379a00000000000000000000000000000000000000000000000000000000081526004016112e690611e6e565b60405180910390fd5b814210611331576040517f08c379a000000000000000000000000000000000000000000000000000000000815260040161132890611d0e565b60405180910390fd5b82600360008773ffffffffffffffffffffffffffffffffffffffff1673ffffffffffffffffffffffffffffffffffffffff16815260200190815260200160002060008681526020019081526020016000208190555081600460008773ffffffffffffffffffffffffffffffffffffffff1673ffffffffffffffffffffffffffffffffffffffff16815260200190815260200160002060008681526020019081526020016000208190555080600560008773ffffffffffffffffffffffffffffffffffffffff1673ffffffffffffffffffffffffffffffffffffffff16815260200190815260200160002060008681526020019081526020016000208190555080600660008773ffffffffffffffffffffffffffffffffffffffff1673ffffffffffffffffffffffffffffffffffffffff1681526020019081526020016000206000868152602001908152602001600020819055506000600760008773ffffffffffffffffffffffffffffffffffffffff1673ffffffffffffffffffffffffffffffffffffffff168152602001908152602001600020600086815260200190815260200160002060006101000a81548173ffffffffffffffffffffffffffffffffffffffff021916908373ffffffffffffffffffffffffffffffffffffffff160217905550838573ffffffffffffffffffffffffffffffffffffffff167f03dec9cb5eb28fc88294be525eef5c4e1c3f2ca49fbe9c31a5ae6f11945aaec1858560405161155e929190611f12565b60405180910390a35050505050565b33611598817fa49807205ce4d355092ef5a8a18f56e8913cf4a201fbe287825b095693c2177561168e565b6115d7576040517f08c379a00000000000000000000000000000000000000000000000000000000081526004016115ce90611dee565b60405180910390fd5b42600460008573ffffffffffffffffffffffffffffffffffffffff1673ffffffffffffffffffffffffffffffffffffffff168152602001908152602001600020600084815260200190815260200160002081905550505050565b600080600360008573ffffffffffffffffffffffffffffffffffffffff1673ffffffffffffffffffffffffffffffffffffffff16815260200190815260200160002060008481526020019081526020016000205411905092915050565b600081600160008573ffffffffffffffffffffffffffffffffffffffff1673ffffffffffffffffffffffffffffffffffffffff1681526020019081526020016000205414905092915050565b6000600360008473ffffffffffffffffffffffffffffffffffffffff1673ffffffffffffffffffffffffffffffffffffffff168152602001908152602001600020600083815260200190815260200160002054421015801561178b5750600460008473ffffffffffffffffffffffffffffffffffffffff1673ffffffffffffffffffffffffffffffffffffffff16815260200190815260200160002060008381526020019081526020016000205442105b905092915050565b6000813590506117a281612292565b92915050565b6000815190506117b781612292565b92915050565b6000813590506117cc816122a9565b92915050565b6000602082840312156117e457600080fd5b60006117f2848285016117a8565b91505092915050565b6000806040838503121561180e57600080fd5b600061181c85828601611793565b925050602061182d858286016117bd565b9150509250929050565b600080600080600060a0868803121561184f57600080fd5b600061185d88828901611793565b955050602061186e888289016117bd565b945050604061187f888289016117bd565b9350506060611890888289016117bd565b92505060806118a1888289016117bd565b9150509295509295909350565b6000602082840312156118c057600080fd5b60006118ce848285016117bd565b91505092915050565b60006118e38383611916565b60208301905092915050565b60006118fb8383611c1b565b60208301905092915050565b6119108161201b565b82525050565b61191f81611fc9565b82525050565b61192e81611fc9565b82525050565b600061193f82611f5b565b6119498185611f8b565b935061195483611f3b565b8060005b8381101561198557815161196c88826118d7565b975061197783611f71565b925050600181019050611958565b5085935050505092915050565b600061199d82611f66565b6119a78185611f9c565b93506119b283611f4b565b8060005b838110156119e35781516119ca88826118ef565b97506119d583611f7e565b9250506001810190506119b6565b5085935050505092915050565b6119f981611fdb565b82525050565b611a0881611fe7565b82525050565b6000611a1b600d83611fb8565b9150611a2682612051565b602082019050919050565b6000611a3e601983611fb8565b9150611a498261207a565b602082019050919050565b6000611a61601583611fb8565b9150611a6c826120a3565b602082019050919050565b6000611a84600f83611fb8565b9150611a8f826120cc565b602082019050919050565b6000611aa7601483611fb8565b9150611ab2826120f5565b602082019050919050565b6000611aca601683611fb8565b9150611ad58261211e565b602082019050919050565b6000611aed600783611fb8565b9150611af882612147565b602082019050919050565b6000611b10600a83611fb8565b9150611b1b82612170565b602082019050919050565b6000611b33600983611fb8565b9150611b3e82612199565b602082019050919050565b6000611b56600083611fad565b9150611b61826121c2565b600082019050919050565b6000611b79601083611fb8565b9150611b84826121c5565b602082019050919050565b6000611b9c600a83611fb8565b9150611ba7826121ee565b602082019050919050565b6000611bbf600e83611fb8565b9150611bca82612217565b602082019050919050565b6000611be2600c83611fb8565b9150611bed82612240565b602082019050919050565b6000611c05600b83611fb8565b9150611c1082612269565b602082019050919050565b611c2481612011565b82525050565b611c3381612011565b82525050565b6000611c4482611b49565b9150819050919050565b6000606082019050611c636000830186611925565b611c706020830185611907565b611c7d6040830184611c2a565b949350505050565b6000608082019050611c9a6000830187611925565b611ca76020830186611c2a565b8181036040830152611cb98185611934565b90508181036060830152611ccd8184611992565b905095945050505050565b6000602082019050611ced60008301846119f0565b92915050565b6000602082019050611d0860008301846119ff565b92915050565b60006020820190508181036000830152611d2781611a0e565b9050919050565b60006020820190508181036000830152611d4781611a31565b9050919050565b60006020820190508181036000830152611d6781611a54565b9050919050565b60006020820190508181036000830152611d8781611a77565b9050919050565b60006020820190508181036000830152611da781611a9a565b9050919050565b60006020820190508181036000830152611dc781611abd565b9050919050565b60006020820190508181036000830152611de781611ae0565b9050919050565b60006020820190508181036000830152611e0781611b03565b9050919050565b60006020820190508181036000830152611e2781611b26565b9050919050565b60006020820190508181036000830152611e4781611b6c565b9050919050565b60006020820190508181036000830152611e6781611b8f565b9050919050565b60006020820190508181036000830152611e8781611bb2565b9050919050565b60006020820190508181036000830152611ea781611bd5565b9050919050565b60006020820190508181036000830152611ec781611bf8565b9050919050565b6000602082019050611ee36000830184611c2a565b92915050565b6000604082019050611efe6000830185611c2a565b611f0b6020830184611925565b9392505050565b6000604082019050611f276000830185611c2a565b611f346020830184611c2a565b9392505050565b6000819050602082019050919050565b6000819050602082019050919050565b600081519050919050565b600081519050919050565b6000602082019050919050565b6000602082019050919050565b600082825260208201905092915050565b600082825260208201905092915050565b600081905092915050565b600082825260208201905092915050565b6000611fd482611ff1565b9050919050565b60008115159050919050565b6000819050919050565b600073ffffffffffffffffffffffffffffffffffffffff82169050919050565b6000819050919050565b60006120268261202d565b9050919050565b60006120388261203f565b9050919050565b600061204a82611ff1565b9050919050565b7f696e762e20656e64206461746500000000000000000000000000000000000000600082015250565b7f796f75277265206e6f7420686967686573742062696464657200000000000000600082015250565b7f746f6b656e207472616e73666572206661696c65640000000000000000000000600082015250565b7f616c726561647920737461727465640000000000000000000000000000000000600082015250565b7f70617920746865206c697374696e672066656573000000000000000000000000600082015250565b7f616c726561647920636c61696d656420627920796f7500000000000000000000600082015250565b7f746f6f206c6f7700000000000000000000000000000000000000000000000000600082015250565b7f4f6e6c792041646d696e00000000000000000000000000000000000000000000600082015250565b7f4e6f74206f776e65720000000000000000000000000000000000000000000000600082015250565b50565b7f5472616e73666572206661696c65642e00000000000000000000000000000000600082015250565b7f6e6f74206c697374656400000000000000000000000000000000000000000000600082015250565b7f616c7265616479206c6973746564000000000000000000000000000000000000600082015250565b7f7374696c6c206163746976650000000000000000000000000000000000000000600082015250565b7f6e6f742073746172746564000000000000000000000000000000000000000000600082015250565b61229b81611fc9565b81146122a657600080fd5b50565b6122b281612011565b81146122bd57600080fd5b5056fea26469706673582212200581370a1eee5eac1091748990792fa265eeffc8cb7e7b5f51d1b1279f7bf48664736f6c63430008030033",
  "linkReferences": {},
  "deployedLinkReferences": {}
}