{
  "_format": "hh-sol-artifact-1",
  "contractName": "MarketPlace",
  "sourceName": "contracts/MarketPlace.sol",
  "abi": [
    {
      "inputs": [],
      "stateMutability": "nonpayable",
      "type": "constructor"
    },
    {
      "anonymous": false,
      "inputs": [
        {
          "indexed": true,
          "internalType": "address",
          "name": "erc721",
          "type": "address"
        },
        {
          "indexed": true,
          "internalType": "uint256",
          "name": "tokenId",
          "type": "uint256"
        },
        {
          "indexed": false,
          "internalType": "uint256",
          "name": "startDate",
          "type": "uint256"
        },
        {
          "indexed": false,
          "internalType": "uint256",
          "name": "endDate",
          "type": "uint256"
        }
      ],
      "name": "Listed",
      "type": "event"
    },
    {
      "inputs": [],
      "name": "ADMIN_ROLE",
      "outputs": [
        {
          "internalType": "bytes32",
          "name": "",
          "type": "bytes32"
        }
      ],
      "stateMutability": "view",
      "type": "function"
    },
    {
      "inputs": [
        {
          "internalType": "address",
          "name": "erc721",
          "type": "address"
        },
        {
          "internalType": "uint256",
          "name": "tokenId",
          "type": "uint256"
        }
      ],
      "name": "isListed",
      "outputs": [
        {
          "internalType": "bool",
          "name": "",
          "type": "bool"
        }
      ],
      "stateMutability": "view",
      "type": "function"
    },
    {
      "inputs": [
        {
          "internalType": "address",
          "name": "erc721",
          "type": "address"
        },
        {
          "internalType": "uint256",
          "name": "tokenId",
          "type": "uint256"
        },
        {
          "internalType": "uint256",
          "name": "_startDate",
          "type": "uint256"
        },
        {
          "internalType": "uint256",
          "name": "_endDate",
          "type": "uint256"
        },
        {
          "internalType": "uint256",
          "name": "_minBid",
          "type": "uint256"
        }
      ],
      "name": "list",
      "outputs": [],
      "stateMutability": "payable",
      "type": "function"
    },
    {
      "inputs": [
        {
          "internalType": "uint256",
          "name": "newFee",
          "type": "uint256"
        }
      ],
      "name": "setListingFee",
      "outputs": [],
      "stateMutability": "nonpayable",
      "type": "function"
    }
  ],
  "bytecode": "0x6080604052662386f26fc1000060005534801561001b57600080fd5b5033600260006101000a81548173ffffffffffffffffffffffffffffffffffffffff021916908373ffffffffffffffffffffffffffffffffffffffff160217905550610bc58061006c6000396000f3fe60806040526004361061003f5760003560e01c8063131dbd091461004457806375b238fc1461006d578063b8bf029b14610098578063cdb3cd25146100b4575b600080fd5b34801561005057600080fd5b5061006b60048036038101906100669190610812565b6100f1565b005b34801561007957600080fd5b50610082610166565b60405161008f9190610932565b60405180910390f35b6100b260048036038101906100ad919061079b565b61018a565b005b3480156100c057600080fd5b506100db60048036038101906100d6919061075f565b610595565b6040516100e89190610917565b60405180910390f35b3361011c817fa49807205ce4d355092ef5a8a18f56e8913cf4a201fbe287825b095693c217756105f2565b61015b576040517f08c379a00000000000000000000000000000000000000000000000000000000081526004016101529061098d565b60405180910390fd5b816000819055505050565b7fa49807205ce4d355092ef5a8a18f56e8913cf4a201fbe287825b095693c2177581565b6000543410156101cf576040517f08c379a00000000000000000000000000000000000000000000000000000000081526004016101c69061094d565b60405180910390fd5b3373ffffffffffffffffffffffffffffffffffffffff168573ffffffffffffffffffffffffffffffffffffffff16636352211e866040518263ffffffff1660e01b815260040161021f91906109ed565b60206040518083038186803b15801561023757600080fd5b505afa15801561024b573d6000803e3d6000fd5b505050506040513d601f19601f8201168201806040525081019061026f9190610736565b73ffffffffffffffffffffffffffffffffffffffff16146102c5576040517f08c379a00000000000000000000000000000000000000000000000000000000081526004016102bc906109ad565b60405180910390fd5b6102cf858561063e565b1561030f576040517f08c379a00000000000000000000000000000000000000000000000000000000081526004016103069061096d565b60405180910390fd5b6103198585610595565b15610359576040517f08c379a0000000000000000000000000000000000000000000000000000000008152600401610350906109cd565b60405180910390fd5b82600360008773ffffffffffffffffffffffffffffffffffffffff1673ffffffffffffffffffffffffffffffffffffffff16815260200190815260200160002060008681526020019081526020016000208190555081600460008773ffffffffffffffffffffffffffffffffffffffff1673ffffffffffffffffffffffffffffffffffffffff16815260200190815260200160002060008681526020019081526020016000208190555080600560008773ffffffffffffffffffffffffffffffffffffffff1673ffffffffffffffffffffffffffffffffffffffff16815260200190815260200160002060008681526020019081526020016000208190555080600660008773ffffffffffffffffffffffffffffffffffffffff1673ffffffffffffffffffffffffffffffffffffffff1681526020019081526020016000206000868152602001908152602001600020819055506000600760008773ffffffffffffffffffffffffffffffffffffffff1673ffffffffffffffffffffffffffffffffffffffff168152602001908152602001600020600086815260200190815260200160002060006101000a81548173ffffffffffffffffffffffffffffffffffffffff021916908373ffffffffffffffffffffffffffffffffffffffff160217905550838573ffffffffffffffffffffffffffffffffffffffff167f03dec9cb5eb28fc88294be525eef5c4e1c3f2ca49fbe9c31a5ae6f11945aaec18585604051610586929190610a08565b60405180910390a35050505050565b600080600360008573ffffffffffffffffffffffffffffffffffffffff1673ffffffffffffffffffffffffffffffffffffffff16815260200190815260200160002060008481526020019081526020016000205411905092915050565b600081600160008573ffffffffffffffffffffffffffffffffffffffff1673ffffffffffffffffffffffffffffffffffffffff1681526020019081526020016000205414905092915050565b6000600360008473ffffffffffffffffffffffffffffffffffffffff1673ffffffffffffffffffffffffffffffffffffffff16815260200190815260200160002060008381526020019081526020016000205442101580156106ef5750600460008473ffffffffffffffffffffffffffffffffffffffff1673ffffffffffffffffffffffffffffffffffffffff16815260200190815260200160002060008381526020019081526020016000205442105b905092915050565b60008135905061070681610b61565b92915050565b60008151905061071b81610b61565b92915050565b60008135905061073081610b78565b92915050565b60006020828403121561074857600080fd5b60006107568482850161070c565b91505092915050565b6000806040838503121561077257600080fd5b6000610780858286016106f7565b925050602061079185828601610721565b9150509250929050565b600080600080600060a086880312156107b357600080fd5b60006107c1888289016106f7565b95505060206107d288828901610721565b94505060406107e388828901610721565b93505060606107f488828901610721565b925050608061080588828901610721565b9150509295509295909350565b60006020828403121561082457600080fd5b600061083284828501610721565b91505092915050565b61084481610a54565b82525050565b61085381610a60565b82525050565b6000610866601483610a31565b915061087182610a94565b602082019050919050565b6000610889600783610a31565b915061089482610abd565b602082019050919050565b60006108ac600a83610a31565b91506108b782610ae6565b602082019050919050565b60006108cf600983610a31565b91506108da82610b0f565b602082019050919050565b60006108f2600e83610a31565b91506108fd82610b38565b602082019050919050565b61091181610a8a565b82525050565b600060208201905061092c600083018461083b565b92915050565b6000602082019050610947600083018461084a565b92915050565b6000602082019050818103600083015261096681610859565b9050919050565b600060208201905081810360008301526109868161087c565b9050919050565b600060208201905081810360008301526109a68161089f565b9050919050565b600060208201905081810360008301526109c6816108c2565b9050919050565b600060208201905081810360008301526109e6816108e5565b9050919050565b6000602082019050610a026000830184610908565b92915050565b6000604082019050610a1d6000830185610908565b610a2a6020830184610908565b9392505050565b600082825260208201905092915050565b6000610a4d82610a6a565b9050919050565b60008115159050919050565b6000819050919050565b600073ffffffffffffffffffffffffffffffffffffffff82169050919050565b6000819050919050565b7f70617920746865206c697374696e672066656573000000000000000000000000600082015250565b7f7374617274656400000000000000000000000000000000000000000000000000600082015250565b7f4f6e6c792041646d696e00000000000000000000000000000000000000000000600082015250565b7f4e6f74206f776e65720000000000000000000000000000000000000000000000600082015250565b7f616c7265616479206c6973746564000000000000000000000000000000000000600082015250565b610b6a81610a42565b8114610b7557600080fd5b50565b610b8181610a8a565b8114610b8c57600080fd5b5056fea26469706673582212206a2b614b29a1297e0b83586f21f9dc52b8845f6ac9266412d96179805eeb417964736f6c63430008030033",
  "linkReferences": {},
  "deployedLinkReferences": {}
}