{
  "_format": "hh-sol-artifact-1",
  "contractName": "MarketPlace",
  "sourceName": "contracts/MarketPlace.sol",
  "abi": [
    {
      "inputs": [],
      "stateMutability": "nonpayable",
      "type": "constructor"
    },
    {
      "anonymous": false,
      "inputs": [
        {
          "indexed": true,
          "internalType": "address",
          "name": "erc721",
          "type": "address"
        },
        {
          "indexed": true,
          "internalType": "uint256",
          "name": "tokenId",
          "type": "uint256"
        },
        {
          "indexed": true,
          "internalType": "address",
          "name": "bidder",
          "type": "address"
        },
        {
          "indexed": false,
          "internalType": "uint256",
          "name": "bid",
          "type": "uint256"
        }
      ],
      "name": "Bid",
      "type": "event"
    },
    {
      "anonymous": false,
      "inputs": [
        {
          "indexed": true,
          "internalType": "address",
          "name": "erc721",
          "type": "address"
        },
        {
          "indexed": true,
          "internalType": "uint256",
          "name": "tokenId",
          "type": "uint256"
        },
        {
          "indexed": false,
          "internalType": "uint256",
          "name": "startDate",
          "type": "uint256"
        },
        {
          "indexed": false,
          "internalType": "uint256",
          "name": "endDate",
          "type": "uint256"
        }
      ],
      "name": "Listed",
      "type": "event"
    },
    {
      "inputs": [],
      "name": "ADMIN_ROLE",
      "outputs": [
        {
          "internalType": "bytes32",
          "name": "",
          "type": "bytes32"
        }
      ],
      "stateMutability": "view",
      "type": "function"
    },
    {
      "inputs": [
        {
          "internalType": "address",
          "name": "erc721",
          "type": "address"
        },
        {
          "internalType": "uint256",
          "name": "tokenId",
          "type": "uint256"
        }
      ],
      "name": "bid",
      "outputs": [],
      "stateMutability": "payable",
      "type": "function"
    },
    {
      "inputs": [
        {
          "internalType": "address",
          "name": "erc721",
          "type": "address"
        },
        {
          "internalType": "uint256",
          "name": "tokenId",
          "type": "uint256"
        }
      ],
      "name": "getBids",
      "outputs": [
        {
          "internalType": "address",
          "name": "",
          "type": "address"
        },
        {
          "internalType": "uint256",
          "name": "",
          "type": "uint256"
        },
        {
          "internalType": "address[]",
          "name": "",
          "type": "address[]"
        },
        {
          "internalType": "uint256[]",
          "name": "",
          "type": "uint256[]"
        }
      ],
      "stateMutability": "view",
      "type": "function"
    },
    {
      "inputs": [
        {
          "internalType": "address",
          "name": "erc721",
          "type": "address"
        },
        {
          "internalType": "uint256",
          "name": "tokenId",
          "type": "uint256"
        }
      ],
      "name": "isListed",
      "outputs": [
        {
          "internalType": "bool",
          "name": "",
          "type": "bool"
        }
      ],
      "stateMutability": "view",
      "type": "function"
    },
    {
      "inputs": [
        {
          "internalType": "address",
          "name": "erc721",
          "type": "address"
        },
        {
          "internalType": "uint256",
          "name": "tokenId",
          "type": "uint256"
        },
        {
          "internalType": "uint256",
          "name": "_startDate",
          "type": "uint256"
        },
        {
          "internalType": "uint256",
          "name": "_endDate",
          "type": "uint256"
        },
        {
          "internalType": "uint256",
          "name": "_minBid",
          "type": "uint256"
        }
      ],
      "name": "list",
      "outputs": [],
      "stateMutability": "payable",
      "type": "function"
    },
    {
      "inputs": [
        {
          "internalType": "uint256",
          "name": "newFee",
          "type": "uint256"
        }
      ],
      "name": "setListingFee",
      "outputs": [],
      "stateMutability": "nonpayable",
      "type": "function"
    }
  ],
  "bytecode": "0x6080604052662386f26fc1000060005534801561001b57600080fd5b5033600260006101000a81548173ffffffffffffffffffffffffffffffffffffffff021916908373ffffffffffffffffffffffffffffffffffffffff1602179055506119918061006c6000396000f3fe6080604052600436106100555760003560e01c8063131dbd091461005a57806359d667a51461008357806375b238fc1461009f578063b5f38dce146100ca578063b8bf029b1461010a578063cdb3cd2514610126575b600080fd5b34801561006657600080fd5b50610081600480360381019061007c919061119e565b610163565b005b61009d600480360381019061009891906110eb565b6101d8565b005b3480156100ab57600080fd5b506100b461085d565b6040516100c19190611511565b60405180910390f35b3480156100d657600080fd5b506100f160048036038101906100ec91906110eb565b610881565b60405161010194939291906114a3565b60405180910390f35b610124600480360381019061011f9190611127565b610ad4565b005b34801561013257600080fd5b5061014d600480360381019061014891906110eb565b610f21565b60405161015a91906114f6565b60405180910390f35b3361018e817fa49807205ce4d355092ef5a8a18f56e8913cf4a201fbe287825b095693c21775610f7e565b6101cd576040517f08c379a00000000000000000000000000000000000000000000000000000000081526004016101c4906115ac565b60405180910390fd5b816000819055505050565b6101e28282610f21565b610221576040517f08c379a00000000000000000000000000000000000000000000000000000000081526004016102189061160c565b60405180910390fd5b61022b8282610fca565b61026a576040517f08c379a00000000000000000000000000000000000000000000000000000000081526004016102619061164c565b60405180910390fd5b600073ffffffffffffffffffffffffffffffffffffffff16600760008473ffffffffffffffffffffffffffffffffffffffff1673ffffffffffffffffffffffffffffffffffffffff168152602001908152602001600020600083815260200190815260200160002060009054906101000a900473ffffffffffffffffffffffffffffffffffffffff1673ffffffffffffffffffffffffffffffffffffffff1614156103a65734600560008473ffffffffffffffffffffffffffffffffffffffff1673ffffffffffffffffffffffffffffffffffffffff168152602001908152602001600020600083815260200190815260200160002054106103a1576040517f08c379a00000000000000000000000000000000000000000000000000000000081526004016103989061158c565b60405180910390fd5b610439565b34600660008473ffffffffffffffffffffffffffffffffffffffff1673ffffffffffffffffffffffffffffffffffffffff16815260200190815260200160002060008381526020019081526020016000205410610438576040517f08c379a000000000000000000000000000000000000000000000000000000000815260040161042f9061158c565b60405180910390fd5b5b6000600760008473ffffffffffffffffffffffffffffffffffffffff1673ffffffffffffffffffffffffffffffffffffffff168152602001908152602001600020600083815260200190815260200160002060009054906101000a900473ffffffffffffffffffffffffffffffffffffffff1690506000600660008573ffffffffffffffffffffffffffffffffffffffff1673ffffffffffffffffffffffffffffffffffffffff168152602001908152602001600020600084815260200190815260200160002054905034600660008673ffffffffffffffffffffffffffffffffffffffff1673ffffffffffffffffffffffffffffffffffffffff16815260200190815260200160002060008581526020019081526020016000208190555033600760008673ffffffffffffffffffffffffffffffffffffffff1673ffffffffffffffffffffffffffffffffffffffff168152602001908152602001600020600085815260200190815260200160002060006101000a81548173ffffffffffffffffffffffffffffffffffffffff021916908373ffffffffffffffffffffffffffffffffffffffff160217905550600860008573ffffffffffffffffffffffffffffffffffffffff1673ffffffffffffffffffffffffffffffffffffffff1681526020019081526020016000206000848152602001908152602001600020349080600181540180825580915050600190039060005260206000200160009091909190915055600960008573ffffffffffffffffffffffffffffffffffffffff1673ffffffffffffffffffffffffffffffffffffffff1681526020019081526020016000206000848152602001908152602001600020339080600181540180825580915050600190039060005260206000200160009091909190916101000a81548173ffffffffffffffffffffffffffffffffffffffff021916908373ffffffffffffffffffffffffffffffffffffffff160217905550600073ffffffffffffffffffffffffffffffffffffffff168273ffffffffffffffffffffffffffffffffffffffff16146107f15760008273ffffffffffffffffffffffffffffffffffffffff16826040516107699061148e565b60006040518083038185875af1925050503d80600081146107a6576040519150601f19603f3d011682016040523d82523d6000602084013e6107ab565b606091505b50509050806107ef576040517f08c379a00000000000000000000000000000000000000000000000000000000081526004016107e6906115ec565b60405180910390fd5b505b3373ffffffffffffffffffffffffffffffffffffffff16838573ffffffffffffffffffffffffffffffffffffffff167f7f863cab1b412077be133ef69af7df0e6aca4c67ff7d89db843d601f124a025d3460405161084f919061166c565b60405180910390a450505050565b7fa49807205ce4d355092ef5a8a18f56e8913cf4a201fbe287825b095693c2177581565b600080606080600760008773ffffffffffffffffffffffffffffffffffffffff1673ffffffffffffffffffffffffffffffffffffffff168152602001908152602001600020600086815260200190815260200160002060009054906101000a900473ffffffffffffffffffffffffffffffffffffffff16600660008873ffffffffffffffffffffffffffffffffffffffff1673ffffffffffffffffffffffffffffffffffffffff168152602001908152602001600020600087815260200190815260200160002054600960008973ffffffffffffffffffffffffffffffffffffffff1673ffffffffffffffffffffffffffffffffffffffff1681526020019081526020016000206000888152602001908152602001600020600860008a73ffffffffffffffffffffffffffffffffffffffff1673ffffffffffffffffffffffffffffffffffffffff168152602001908152602001600020600089815260200190815260200160002081805480602002602001604051908101604052809291908181526020018280548015610a6a57602002820191906000526020600020905b8160009054906101000a900473ffffffffffffffffffffffffffffffffffffffff1673ffffffffffffffffffffffffffffffffffffffff1681526020019060010190808311610a20575b5050505050915080805480602002602001604051908101604052809291908181526020018280548015610abc57602002820191906000526020600020905b815481526020019060010190808311610aa8575b50505050509050935093509350935092959194509250565b600054341015610b19576040517f08c379a0000000000000000000000000000000000000000000000000000000008152600401610b109061156c565b60405180910390fd5b3373ffffffffffffffffffffffffffffffffffffffff168573ffffffffffffffffffffffffffffffffffffffff16636352211e866040518263ffffffff1660e01b8152600401610b69919061166c565b60206040518083038186803b158015610b8157600080fd5b505afa158015610b95573d6000803e3d6000fd5b505050506040513d601f19601f82011682018060405250810190610bb991906110c2565b73ffffffffffffffffffffffffffffffffffffffff1614610c0f576040517f08c379a0000000000000000000000000000000000000000000000000000000008152600401610c06906115cc565b60405180910390fd5b610c198585610fca565b15610c59576040517f08c379a0000000000000000000000000000000000000000000000000000000008152600401610c509061154c565b60405180910390fd5b610c638585610f21565b15610ca3576040517f08c379a0000000000000000000000000000000000000000000000000000000008152600401610c9a9061162c565b60405180910390fd5b814210610ce5576040517f08c379a0000000000000000000000000000000000000000000000000000000008152600401610cdc9061152c565b60405180910390fd5b82600360008773ffffffffffffffffffffffffffffffffffffffff1673ffffffffffffffffffffffffffffffffffffffff16815260200190815260200160002060008681526020019081526020016000208190555081600460008773ffffffffffffffffffffffffffffffffffffffff1673ffffffffffffffffffffffffffffffffffffffff16815260200190815260200160002060008681526020019081526020016000208190555080600560008773ffffffffffffffffffffffffffffffffffffffff1673ffffffffffffffffffffffffffffffffffffffff16815260200190815260200160002060008681526020019081526020016000208190555080600660008773ffffffffffffffffffffffffffffffffffffffff1673ffffffffffffffffffffffffffffffffffffffff1681526020019081526020016000206000868152602001908152602001600020819055506000600760008773ffffffffffffffffffffffffffffffffffffffff1673ffffffffffffffffffffffffffffffffffffffff168152602001908152602001600020600086815260200190815260200160002060006101000a81548173ffffffffffffffffffffffffffffffffffffffff021916908373ffffffffffffffffffffffffffffffffffffffff160217905550838573ffffffffffffffffffffffffffffffffffffffff167f03dec9cb5eb28fc88294be525eef5c4e1c3f2ca49fbe9c31a5ae6f11945aaec18585604051610f12929190611687565b60405180910390a35050505050565b600080600360008573ffffffffffffffffffffffffffffffffffffffff1673ffffffffffffffffffffffffffffffffffffffff16815260200190815260200160002060008481526020019081526020016000205411905092915050565b600081600160008573ffffffffffffffffffffffffffffffffffffffff1673ffffffffffffffffffffffffffffffffffffffff1681526020019081526020016000205414905092915050565b6000600360008473ffffffffffffffffffffffffffffffffffffffff1673ffffffffffffffffffffffffffffffffffffffff168152602001908152602001600020600083815260200190815260200160002054421015801561107b5750600460008473ffffffffffffffffffffffffffffffffffffffff1673ffffffffffffffffffffffffffffffffffffffff16815260200190815260200160002060008381526020019081526020016000205442105b905092915050565b6000813590506110928161192d565b92915050565b6000815190506110a78161192d565b92915050565b6000813590506110bc81611944565b92915050565b6000602082840312156110d457600080fd5b60006110e284828501611098565b91505092915050565b600080604083850312156110fe57600080fd5b600061110c85828601611083565b925050602061111d858286016110ad565b9150509250929050565b600080600080600060a0868803121561113f57600080fd5b600061114d88828901611083565b955050602061115e888289016110ad565b945050604061116f888289016110ad565b9350506060611180888289016110ad565b9250506080611191888289016110ad565b9150509295509295909350565b6000602082840312156111b057600080fd5b60006111be848285016110ad565b91505092915050565b60006111d383836111f7565b60208301905092915050565b60006111eb8383611470565b60208301905092915050565b6112008161173e565b82525050565b61120f8161173e565b82525050565b6000611220826116d0565b61122a8185611700565b9350611235836116b0565b8060005b8381101561126657815161124d88826111c7565b9750611258836116e6565b925050600181019050611239565b5085935050505092915050565b600061127e826116db565b6112888185611711565b9350611293836116c0565b8060005b838110156112c45781516112ab88826111df565b97506112b6836116f3565b925050600181019050611297565b5085935050505092915050565b6112da81611750565b82525050565b6112e98161175c565b82525050565b60006112fc600d8361172d565b915061130782611790565b602082019050919050565b600061131f600f8361172d565b915061132a826117b9565b602082019050919050565b600061134260148361172d565b915061134d826117e2565b602082019050919050565b600061136560078361172d565b91506113708261180b565b602082019050919050565b6000611388600a8361172d565b915061139382611834565b602082019050919050565b60006113ab60098361172d565b91506113b68261185d565b602082019050919050565b60006113ce600083611722565b91506113d982611886565b600082019050919050565b60006113f160108361172d565b91506113fc82611889565b602082019050919050565b6000611414600a8361172d565b915061141f826118b2565b602082019050919050565b6000611437600e8361172d565b9150611442826118db565b602082019050919050565b600061145a600b8361172d565b915061146582611904565b602082019050919050565b61147981611786565b82525050565b61148881611786565b82525050565b6000611499826113c1565b9150819050919050565b60006080820190506114b86000830187611206565b6114c5602083018661147f565b81810360408301526114d78185611215565b905081810360608301526114eb8184611273565b905095945050505050565b600060208201905061150b60008301846112d1565b92915050565b600060208201905061152660008301846112e0565b92915050565b60006020820190508181036000830152611545816112ef565b9050919050565b6000602082019050818103600083015261156581611312565b9050919050565b6000602082019050818103600083015261158581611335565b9050919050565b600060208201905081810360008301526115a581611358565b9050919050565b600060208201905081810360008301526115c58161137b565b9050919050565b600060208201905081810360008301526115e58161139e565b9050919050565b60006020820190508181036000830152611605816113e4565b9050919050565b6000602082019050818103600083015261162581611407565b9050919050565b600060208201905081810360008301526116458161142a565b9050919050565b600060208201905081810360008301526116658161144d565b9050919050565b6000602082019050611681600083018461147f565b92915050565b600060408201905061169c600083018561147f565b6116a9602083018461147f565b9392505050565b6000819050602082019050919050565b6000819050602082019050919050565b600081519050919050565b600081519050919050565b6000602082019050919050565b6000602082019050919050565b600082825260208201905092915050565b600082825260208201905092915050565b600081905092915050565b600082825260208201905092915050565b600061174982611766565b9050919050565b60008115159050919050565b6000819050919050565b600073ffffffffffffffffffffffffffffffffffffffff82169050919050565b6000819050919050565b7f696e762e20656e64206461746500000000000000000000000000000000000000600082015250565b7f616c726561647920737461727465640000000000000000000000000000000000600082015250565b7f70617920746865206c697374696e672066656573000000000000000000000000600082015250565b7f746f6f206c6f7700000000000000000000000000000000000000000000000000600082015250565b7f4f6e6c792041646d696e00000000000000000000000000000000000000000000600082015250565b7f4e6f74206f776e65720000000000000000000000000000000000000000000000600082015250565b50565b7f5472616e73666572206661696c65642e00000000000000000000000000000000600082015250565b7f6e6f74206c697374656400000000000000000000000000000000000000000000600082015250565b7f616c7265616479206c6973746564000000000000000000000000000000000000600082015250565b7f6e6f742073746172746564000000000000000000000000000000000000000000600082015250565b6119368161173e565b811461194157600080fd5b50565b61194d81611786565b811461195857600080fd5b5056fea2646970667358221220a6f575efd460fa7fc1bb00cc98d64c58157185ab466219b652956bb6ceca5d0564736f6c63430008030033",
  "linkReferences": {},
  "deployedLinkReferences": {}
}