{
  "_format": "hh-sol-artifact-1",
  "contractName": "MarketPlace",
  "sourceName": "contracts/MarketPlace.sol",
  "abi": [
    {
      "inputs": [],
      "stateMutability": "nonpayable",
      "type": "constructor"
    },
    {
      "anonymous": false,
      "inputs": [
        {
          "indexed": true,
          "internalType": "address",
          "name": "erc721",
          "type": "address"
        },
        {
          "indexed": true,
          "internalType": "uint256",
          "name": "tokenId",
          "type": "uint256"
        },
        {
          "indexed": true,
          "internalType": "address",
          "name": "bidder",
          "type": "address"
        },
        {
          "indexed": false,
          "internalType": "uint256",
          "name": "bid",
          "type": "uint256"
        }
      ],
      "name": "Bid",
      "type": "event"
    },
    {
      "anonymous": false,
      "inputs": [
        {
          "indexed": true,
          "internalType": "address",
          "name": "erc721",
          "type": "address"
        },
        {
          "indexed": true,
          "internalType": "uint256",
          "name": "tokenId",
          "type": "uint256"
        },
        {
          "indexed": true,
          "internalType": "address",
          "name": "bidder",
          "type": "address"
        },
        {
          "indexed": false,
          "internalType": "uint256",
          "name": "bid",
          "type": "uint256"
        },
        {
          "indexed": false,
          "internalType": "address",
          "name": "formerOwner",
          "type": "address"
        }
      ],
      "name": "Claimed",
      "type": "event"
    },
    {
      "anonymous": false,
      "inputs": [
        {
          "indexed": true,
          "internalType": "address",
          "name": "erc721",
          "type": "address"
        },
        {
          "indexed": true,
          "internalType": "uint256",
          "name": "tokenId",
          "type": "uint256"
        },
        {
          "indexed": false,
          "internalType": "uint256",
          "name": "startDate",
          "type": "uint256"
        },
        {
          "indexed": false,
          "internalType": "uint256",
          "name": "endDate",
          "type": "uint256"
        }
      ],
      "name": "Listed",
      "type": "event"
    },
    {
      "inputs": [],
      "name": "ADMIN_ROLE",
      "outputs": [
        {
          "internalType": "bytes32",
          "name": "",
          "type": "bytes32"
        }
      ],
      "stateMutability": "view",
      "type": "function"
    },
    {
      "inputs": [
        {
          "internalType": "address",
          "name": "newAdmin",
          "type": "address"
        }
      ],
      "name": "addAdmin",
      "outputs": [],
      "stateMutability": "nonpayable",
      "type": "function"
    },
    {
      "inputs": [
        {
          "internalType": "address",
          "name": "erc721",
          "type": "address"
        },
        {
          "internalType": "uint256",
          "name": "tokenId",
          "type": "uint256"
        }
      ],
      "name": "bid",
      "outputs": [],
      "stateMutability": "payable",
      "type": "function"
    },
    {
      "inputs": [
        {
          "internalType": "address",
          "name": "erc721",
          "type": "address"
        },
        {
          "internalType": "uint256",
          "name": "tokenId",
          "type": "uint256"
        }
      ],
      "name": "claim",
      "outputs": [],
      "stateMutability": "nonpayable",
      "type": "function"
    },
    {
      "inputs": [
        {
          "internalType": "address",
          "name": "erc721",
          "type": "address"
        },
        {
          "internalType": "uint256",
          "name": "tokenId",
          "type": "uint256"
        }
      ],
      "name": "forceAuctionToEnd",
      "outputs": [],
      "stateMutability": "nonpayable",
      "type": "function"
    },
    {
      "inputs": [
        {
          "internalType": "address",
          "name": "erc721",
          "type": "address"
        },
        {
          "internalType": "uint256",
          "name": "tokenId",
          "type": "uint256"
        }
      ],
      "name": "getBids",
      "outputs": [
        {
          "internalType": "address",
          "name": "",
          "type": "address"
        },
        {
          "internalType": "uint256",
          "name": "",
          "type": "uint256"
        },
        {
          "internalType": "address[]",
          "name": "",
          "type": "address[]"
        },
        {
          "internalType": "uint256[]",
          "name": "",
          "type": "uint256[]"
        }
      ],
      "stateMutability": "view",
      "type": "function"
    },
    {
      "inputs": [
        {
          "internalType": "address",
          "name": "erc721",
          "type": "address"
        },
        {
          "internalType": "uint256",
          "name": "tokenId",
          "type": "uint256"
        }
      ],
      "name": "getFullBids",
      "outputs": [
        {
          "components": [
            {
              "internalType": "uint256",
              "name": "startDate",
              "type": "uint256"
            },
            {
              "internalType": "uint256",
              "name": "endDate",
              "type": "uint256"
            },
            {
              "internalType": "uint256",
              "name": "minBid",
              "type": "uint256"
            },
            {
              "internalType": "uint256",
              "name": "currentBid",
              "type": "uint256"
            },
            {
              "internalType": "address",
              "name": "currentBidder",
              "type": "address"
            },
            {
              "internalType": "uint256[]",
              "name": "bids",
              "type": "uint256[]"
            },
            {
              "internalType": "address[]",
              "name": "currentBidders",
              "type": "address[]"
            }
          ],
          "internalType": "struct MarketPlace.Bids",
          "name": "",
          "type": "tuple"
        }
      ],
      "stateMutability": "view",
      "type": "function"
    },
    {
      "inputs": [
        {
          "internalType": "address",
          "name": "check",
          "type": "address"
        }
      ],
      "name": "isAdmin",
      "outputs": [
        {
          "internalType": "bool",
          "name": "",
          "type": "bool"
        }
      ],
      "stateMutability": "view",
      "type": "function"
    },
    {
      "inputs": [
        {
          "internalType": "address",
          "name": "erc721",
          "type": "address"
        },
        {
          "internalType": "uint256",
          "name": "tokenId",
          "type": "uint256"
        }
      ],
      "name": "isListed",
      "outputs": [
        {
          "internalType": "bool",
          "name": "",
          "type": "bool"
        }
      ],
      "stateMutability": "view",
      "type": "function"
    },
    {
      "inputs": [
        {
          "internalType": "address",
          "name": "erc721",
          "type": "address"
        },
        {
          "internalType": "uint256",
          "name": "tokenId",
          "type": "uint256"
        },
        {
          "internalType": "uint256",
          "name": "_startDate",
          "type": "uint256"
        },
        {
          "internalType": "uint256",
          "name": "_endDate",
          "type": "uint256"
        },
        {
          "internalType": "uint256",
          "name": "_minBid",
          "type": "uint256"
        }
      ],
      "name": "list",
      "outputs": [],
      "stateMutability": "payable",
      "type": "function"
    },
    {
      "inputs": [],
      "name": "listingFee",
      "outputs": [
        {
          "internalType": "uint256",
          "name": "",
          "type": "uint256"
        }
      ],
      "stateMutability": "view",
      "type": "function"
    },
    {
      "inputs": [
        {
          "internalType": "uint256",
          "name": "newFee",
          "type": "uint256"
        }
      ],
      "name": "setListingFee",
      "outputs": [],
      "stateMutability": "nonpayable",
      "type": "function"
    }
  ],
  "bytecode": "0x6080604052662386f26fc1000060005534801561001b57600080fd5b5033600260006101000a81548173ffffffffffffffffffffffffffffffffffffffff021916908373ffffffffffffffffffffffffffffffffffffffff1602179055507fa49807205ce4d355092ef5a8a18f56e8913cf4a201fbe287825b095693c2177560016000600260009054906101000a900473ffffffffffffffffffffffffffffffffffffffff1673ffffffffffffffffffffffffffffffffffffffff1673ffffffffffffffffffffffffffffffffffffffff16815260200190815260200160002081905550612f67806100f26000396000f3fe6080604052600436106100a75760003560e01c8063aad3ec9611610064578063aad3ec96146101ad578063b5f38dce146101d6578063b8bf029b14610216578063c51abce014610232578063cdb3cd251461025b578063d5a3eb0214610298576100a7565b8063131dbd09146100ac57806324d7806c146100d557806359d667a5146101125780636a1b7ecc1461012e578063704802751461015957806375b238fc14610182575b600080fd5b3480156100b857600080fd5b506100d360048036038101906100ce91906122ea565b6102d5565b005b3480156100e157600080fd5b506100fc60048036038101906100f791906121e5565b61034a565b6040516101099190612896565b60405180910390f35b61012c60048036038101906101279190612237565b6103b5565b005b34801561013a57600080fd5b50610143610b31565b6040516101509190612ace565b60405180910390f35b34801561016557600080fd5b50610180600480360381019061017b91906121e5565b610b37565b005b34801561018e57600080fd5b50610197610c09565b6040516101a491906128b1565b60405180910390f35b3480156101b957600080fd5b506101d460048036038101906101cf9190612237565b610c2d565b005b3480156101e257600080fd5b506101fd60048036038101906101f89190612237565b6114a1565b60405161020d9493929190612843565b60405180910390f35b610230600480360381019061022b9190612273565b6116f4565b005b34801561023e57600080fd5b5061025960048036038101906102549190612237565b611b53565b005b34801561026757600080fd5b50610282600480360381019061027d9190612237565b611c17565b60405161028f9190612896565b60405180910390f35b3480156102a457600080fd5b506102bf60048036038101906102ba9190612237565b611c74565b6040516102cc9190612aac565b60405180910390f35b33610300817fa49807205ce4d355092ef5a8a18f56e8913cf4a201fbe287825b095693c21775611fef565b61033f576040517f08c379a0000000000000000000000000000000000000000000000000000000008152600401610336906128ec565b60405180910390fd5b816000819055505050565b60007fa49807205ce4d355092ef5a8a18f56e8913cf4a201fbe287825b095693c21775600160008473ffffffffffffffffffffffffffffffffffffffff1673ffffffffffffffffffffffffffffffffffffffff16815260200190815260200160002054149050919050565b3373ffffffffffffffffffffffffffffffffffffffff168273ffffffffffffffffffffffffffffffffffffffff16636352211e836040518263ffffffff1660e01b81526004016104059190612ace565b60206040518083038186803b15801561041d57600080fd5b505afa158015610431573d6000803e3d6000fd5b505050506040513d601f19601f82011682018060405250810190610455919061220e565b73ffffffffffffffffffffffffffffffffffffffff1614156104ac576040517f08c379a00000000000000000000000000000000000000000000000000000000081526004016104a39061298c565b60405180910390fd5b6104b68282611c17565b6104f5576040517f08c379a00000000000000000000000000000000000000000000000000000000081526004016104ec90612a2c565b60405180910390fd5b6104ff828261203b565b61053e576040517f08c379a000000000000000000000000000000000000000000000000000000000815260040161053590612a8c565b60405180910390fd5b600073ffffffffffffffffffffffffffffffffffffffff16600760008473ffffffffffffffffffffffffffffffffffffffff1673ffffffffffffffffffffffffffffffffffffffff168152602001908152602001600020600083815260200190815260200160002060009054906101000a900473ffffffffffffffffffffffffffffffffffffffff1673ffffffffffffffffffffffffffffffffffffffff16141561067a5734600560008473ffffffffffffffffffffffffffffffffffffffff1673ffffffffffffffffffffffffffffffffffffffff16815260200190815260200160002060008381526020019081526020016000205410610675576040517f08c379a000000000000000000000000000000000000000000000000000000000815260040161066c906129cc565b60405180910390fd5b61070d565b34600660008473ffffffffffffffffffffffffffffffffffffffff1673ffffffffffffffffffffffffffffffffffffffff1681526020019081526020016000206000838152602001908152602001600020541061070c576040517f08c379a0000000000000000000000000000000000000000000000000000000008152600401610703906129cc565b60405180910390fd5b5b6000600760008473ffffffffffffffffffffffffffffffffffffffff1673ffffffffffffffffffffffffffffffffffffffff168152602001908152602001600020600083815260200190815260200160002060009054906101000a900473ffffffffffffffffffffffffffffffffffffffff1690506000600660008573ffffffffffffffffffffffffffffffffffffffff1673ffffffffffffffffffffffffffffffffffffffff168152602001908152602001600020600084815260200190815260200160002054905034600660008673ffffffffffffffffffffffffffffffffffffffff1673ffffffffffffffffffffffffffffffffffffffff16815260200190815260200160002060008581526020019081526020016000208190555033600760008673ffffffffffffffffffffffffffffffffffffffff1673ffffffffffffffffffffffffffffffffffffffff168152602001908152602001600020600085815260200190815260200160002060006101000a81548173ffffffffffffffffffffffffffffffffffffffff021916908373ffffffffffffffffffffffffffffffffffffffff160217905550600860008573ffffffffffffffffffffffffffffffffffffffff1673ffffffffffffffffffffffffffffffffffffffff1681526020019081526020016000206000848152602001908152602001600020349080600181540180825580915050600190039060005260206000200160009091909190915055600960008573ffffffffffffffffffffffffffffffffffffffff1673ffffffffffffffffffffffffffffffffffffffff1681526020019081526020016000206000848152602001908152602001600020339080600181540180825580915050600190039060005260206000200160009091909190916101000a81548173ffffffffffffffffffffffffffffffffffffffff021916908373ffffffffffffffffffffffffffffffffffffffff160217905550600073ffffffffffffffffffffffffffffffffffffffff168273ffffffffffffffffffffffffffffffffffffffff1614610ac55760008273ffffffffffffffffffffffffffffffffffffffff1682604051610a3d906127f7565b60006040518083038185875af1925050503d8060008114610a7a576040519150601f19603f3d011682016040523d82523d6000602084013e610a7f565b606091505b5050905080610ac3576040517f08c379a0000000000000000000000000000000000000000000000000000000008152600401610aba90612a0c565b60405180910390fd5b505b3373ffffffffffffffffffffffffffffffffffffffff16838573ffffffffffffffffffffffffffffffffffffffff167f7f863cab1b412077be133ef69af7df0e6aca4c67ff7d89db843d601f124a025d34604051610b239190612ace565b60405180910390a450505050565b60005481565b33610b62817fa49807205ce4d355092ef5a8a18f56e8913cf4a201fbe287825b095693c21775611fef565b610ba1576040517f08c379a0000000000000000000000000000000000000000000000000000000008152600401610b98906128ec565b60405180910390fd5b7fa49807205ce4d355092ef5a8a18f56e8913cf4a201fbe287825b095693c21775600160008473ffffffffffffffffffffffffffffffffffffffff1673ffffffffffffffffffffffffffffffffffffffff168152602001908152602001600020819055505050565b7fa49807205ce4d355092ef5a8a18f56e8913cf4a201fbe287825b095693c2177581565b610c378282611c17565b610c76576040517f08c379a0000000000000000000000000000000000000000000000000000000008152600401610c6d90612a2c565b60405180910390fd5b60008273ffffffffffffffffffffffffffffffffffffffff16636352211e836040518263ffffffff1660e01b8152600401610cb19190612ace565b60206040518083038186803b158015610cc957600080fd5b505afa158015610cdd573d6000803e3d6000fd5b505050506040513d601f19601f82011682018060405250810190610d01919061220e565b9050600460008473ffffffffffffffffffffffffffffffffffffffff1673ffffffffffffffffffffffffffffffffffffffff1681526020019081526020016000206000838152602001908152602001600020544211610d95576040517f08c379a0000000000000000000000000000000000000000000000000000000008152600401610d8c90612a6c565b60405180910390fd5b3373ffffffffffffffffffffffffffffffffffffffff16600760008573ffffffffffffffffffffffffffffffffffffffff1673ffffffffffffffffffffffffffffffffffffffff168152602001908152602001600020600084815260200190815260200160002060009054906101000a900473ffffffffffffffffffffffffffffffffffffffff1673ffffffffffffffffffffffffffffffffffffffff1614610e73576040517f08c379a0000000000000000000000000000000000000000000000000000000008152600401610e6a9061290c565b60405180910390fd5b3373ffffffffffffffffffffffffffffffffffffffff168173ffffffffffffffffffffffffffffffffffffffff161415610ee2576040517f08c379a0000000000000000000000000000000000000000000000000000000008152600401610ed9906129ac565b60405180910390fd5b8273ffffffffffffffffffffffffffffffffffffffff166323b872dd8233856040518463ffffffff1660e01b8152600401610f1f9392919061280c565b600060405180830381600087803b158015610f3957600080fd5b505af1158015610f4d573d6000803e3d6000fd5b505050503373ffffffffffffffffffffffffffffffffffffffff168373ffffffffffffffffffffffffffffffffffffffff16636352211e846040518263ffffffff1660e01b8152600401610fa19190612ace565b60206040518083038186803b158015610fb957600080fd5b505afa158015610fcd573d6000803e3d6000fd5b505050506040513d601f19601f82011682018060405250810190610ff1919061220e565b73ffffffffffffffffffffffffffffffffffffffff1614611047576040517f08c379a000000000000000000000000000000000000000000000000000000000815260040161103e9061292c565b60405180910390fd5b60008173ffffffffffffffffffffffffffffffffffffffff16600660008673ffffffffffffffffffffffffffffffffffffffff1673ffffffffffffffffffffffffffffffffffffffff1681526020019081526020016000206000858152602001908152602001600020546040516110bd906127f7565b60006040518083038185875af1925050503d80600081146110fa576040519150601f19603f3d011682016040523d82523d6000602084013e6110ff565b606091505b5050905080611143576040517f08c379a000000000000000000000000000000000000000000000000000000000815260040161113a90612a0c565b60405180910390fd5b6000600360008673ffffffffffffffffffffffffffffffffffffffff1673ffffffffffffffffffffffffffffffffffffffff1681526020019081526020016000206000858152602001908152602001600020819055506000600460008673ffffffffffffffffffffffffffffffffffffffff1673ffffffffffffffffffffffffffffffffffffffff1681526020019081526020016000206000858152602001908152602001600020819055506000600560008673ffffffffffffffffffffffffffffffffffffffff1673ffffffffffffffffffffffffffffffffffffffff168152602001908152602001600020600085815260200190815260200160002081905550600960008573ffffffffffffffffffffffffffffffffffffffff1673ffffffffffffffffffffffffffffffffffffffff168152602001908152602001600020600084815260200190815260200160002060006112a191906120f4565b600860008573ffffffffffffffffffffffffffffffffffffffff1673ffffffffffffffffffffffffffffffffffffffff168152602001908152602001600020600084815260200190815260200160002060006112fd9190612115565b6000600660008673ffffffffffffffffffffffffffffffffffffffff1673ffffffffffffffffffffffffffffffffffffffff1681526020019081526020016000206000858152602001908152602001600020819055506000600760008673ffffffffffffffffffffffffffffffffffffffff1673ffffffffffffffffffffffffffffffffffffffff168152602001908152602001600020600085815260200190815260200160002060006101000a81548173ffffffffffffffffffffffffffffffffffffffff021916908373ffffffffffffffffffffffffffffffffffffffff1602179055503373ffffffffffffffffffffffffffffffffffffffff16838573ffffffffffffffffffffffffffffffffffffffff167f2ff23a03adcd87db2418d745f5b3f8a4b4fbfe715e10721f40bab918802a43f7600660008973ffffffffffffffffffffffffffffffffffffffff1673ffffffffffffffffffffffffffffffffffffffff16815260200190815260200160002060008881526020019081526020016000205486604051611493929190612ae9565b60405180910390a450505050565b600080606080600760008773ffffffffffffffffffffffffffffffffffffffff1673ffffffffffffffffffffffffffffffffffffffff168152602001908152602001600020600086815260200190815260200160002060009054906101000a900473ffffffffffffffffffffffffffffffffffffffff16600660008873ffffffffffffffffffffffffffffffffffffffff1673ffffffffffffffffffffffffffffffffffffffff168152602001908152602001600020600087815260200190815260200160002054600960008973ffffffffffffffffffffffffffffffffffffffff1673ffffffffffffffffffffffffffffffffffffffff1681526020019081526020016000206000888152602001908152602001600020600860008a73ffffffffffffffffffffffffffffffffffffffff1673ffffffffffffffffffffffffffffffffffffffff16815260200190815260200160002060008981526020019081526020016000208180548060200260200160405190810160405280929190818152602001828054801561168a57602002820191906000526020600020905b8160009054906101000a900473ffffffffffffffffffffffffffffffffffffffff1673ffffffffffffffffffffffffffffffffffffffff1681526020019060010190808311611640575b50505050509150808054806020026020016040519081016040528092919081815260200182805480156116dc57602002820191906000526020600020905b8154815260200190600101908083116116c8575b50505050509050935093509350935092959194509250565b600054341015611739576040517f08c379a00000000000000000000000000000000000000000000000000000000081526004016117309061296c565b60405180910390fd5b3373ffffffffffffffffffffffffffffffffffffffff168573ffffffffffffffffffffffffffffffffffffffff16636352211e866040518263ffffffff1660e01b81526004016117899190612ace565b60206040518083038186803b1580156117a157600080fd5b505afa1580156117b5573d6000803e3d6000fd5b505050506040513d601f19601f820116820180604052508101906117d9919061220e565b73ffffffffffffffffffffffffffffffffffffffff161461182f576040517f08c379a0000000000000000000000000000000000000000000000000000000008152600401611826906129ec565b60405180910390fd5b611839858561203b565b15611879576040517f08c379a00000000000000000000000000000000000000000000000000000000081526004016118709061294c565b60405180910390fd5b6118838585611c17565b80156118955750611894858561203b565b5b156118d5576040517f08c379a00000000000000000000000000000000000000000000000000000000081526004016118cc90612a4c565b60405180910390fd5b814210611917576040517f08c379a000000000000000000000000000000000000000000000000000000000815260040161190e906128cc565b60405180910390fd5b82600360008773ffffffffffffffffffffffffffffffffffffffff1673ffffffffffffffffffffffffffffffffffffffff16815260200190815260200160002060008681526020019081526020016000208190555081600460008773ffffffffffffffffffffffffffffffffffffffff1673ffffffffffffffffffffffffffffffffffffffff16815260200190815260200160002060008681526020019081526020016000208190555080600560008773ffffffffffffffffffffffffffffffffffffffff1673ffffffffffffffffffffffffffffffffffffffff16815260200190815260200160002060008681526020019081526020016000208190555080600660008773ffffffffffffffffffffffffffffffffffffffff1673ffffffffffffffffffffffffffffffffffffffff1681526020019081526020016000206000868152602001908152602001600020819055506000600760008773ffffffffffffffffffffffffffffffffffffffff1673ffffffffffffffffffffffffffffffffffffffff168152602001908152602001600020600086815260200190815260200160002060006101000a81548173ffffffffffffffffffffffffffffffffffffffff021916908373ffffffffffffffffffffffffffffffffffffffff160217905550838573ffffffffffffffffffffffffffffffffffffffff167f03dec9cb5eb28fc88294be525eef5c4e1c3f2ca49fbe9c31a5ae6f11945aaec18585604051611b44929190612b12565b60405180910390a35050505050565b33611b7e817fa49807205ce4d355092ef5a8a18f56e8913cf4a201fbe287825b095693c21775611fef565b611bbd576040517f08c379a0000000000000000000000000000000000000000000000000000000008152600401611bb4906128ec565b60405180910390fd5b42600460008573ffffffffffffffffffffffffffffffffffffffff1673ffffffffffffffffffffffffffffffffffffffff168152602001908152602001600020600084815260200190815260200160002081905550505050565b600080600360008573ffffffffffffffffffffffffffffffffffffffff1673ffffffffffffffffffffffffffffffffffffffff16815260200190815260200160002060008481526020019081526020016000205411905092915050565b611c7c612136565b6040518060e00160405280600360008673ffffffffffffffffffffffffffffffffffffffff1673ffffffffffffffffffffffffffffffffffffffff1681526020019081526020016000206000858152602001908152602001600020548152602001600460008673ffffffffffffffffffffffffffffffffffffffff1673ffffffffffffffffffffffffffffffffffffffff1681526020019081526020016000206000858152602001908152602001600020548152602001600560008673ffffffffffffffffffffffffffffffffffffffff1673ffffffffffffffffffffffffffffffffffffffff1681526020019081526020016000206000858152602001908152602001600020548152602001600660008673ffffffffffffffffffffffffffffffffffffffff1673ffffffffffffffffffffffffffffffffffffffff1681526020019081526020016000206000858152602001908152602001600020548152602001600760008673ffffffffffffffffffffffffffffffffffffffff1673ffffffffffffffffffffffffffffffffffffffff168152602001908152602001600020600085815260200190815260200160002060009054906101000a900473ffffffffffffffffffffffffffffffffffffffff1673ffffffffffffffffffffffffffffffffffffffff168152602001600860008673ffffffffffffffffffffffffffffffffffffffff1673ffffffffffffffffffffffffffffffffffffffff1681526020019081526020016000206000858152602001908152602001600020805480602002602001604051908101604052809291908181526020018280548015611f0557602002820191906000526020600020905b815481526020019060010190808311611ef1575b50505050508152602001600960008673ffffffffffffffffffffffffffffffffffffffff1673ffffffffffffffffffffffffffffffffffffffff1681526020019081526020016000206000858152602001908152602001600020805480602002602001604051908101604052809291908181526020018280548015611fdf57602002820191906000526020600020905b8160009054906101000a900473ffffffffffffffffffffffffffffffffffffffff1673ffffffffffffffffffffffffffffffffffffffff1681526020019060010190808311611f95575b5050505050815250905092915050565b600081600160008573ffffffffffffffffffffffffffffffffffffffff1673ffffffffffffffffffffffffffffffffffffffff1681526020019081526020016000205414905092915050565b6000600360008473ffffffffffffffffffffffffffffffffffffffff1673ffffffffffffffffffffffffffffffffffffffff16815260200190815260200160002060008381526020019081526020016000205442101580156120ec5750600460008473ffffffffffffffffffffffffffffffffffffffff1673ffffffffffffffffffffffffffffffffffffffff16815260200190815260200160002060008381526020019081526020016000205442105b905092915050565b50805460008255906000526020600020908101906121129190612189565b50565b50805460008255906000526020600020908101906121339190612189565b50565b6040518060e0016040528060008152602001600081526020016000815260200160008152602001600073ffffffffffffffffffffffffffffffffffffffff16815260200160608152602001606081525090565b5b808211156121a257600081600090555060010161218a565b5090565b6000813590506121b581612f03565b92915050565b6000815190506121ca81612f03565b92915050565b6000813590506121df81612f1a565b92915050565b6000602082840312156121f757600080fd5b6000612205848285016121a6565b91505092915050565b60006020828403121561222057600080fd5b600061222e848285016121bb565b91505092915050565b6000806040838503121561224a57600080fd5b6000612258858286016121a6565b9250506020612269858286016121d0565b9150509250929050565b600080600080600060a0868803121561228b57600080fd5b6000612299888289016121a6565b95505060206122aa888289016121d0565b94505060406122bb888289016121d0565b93505060606122cc888289016121d0565b92505060806122dd888289016121d0565b9150509295509295909350565b6000602082840312156122fc57600080fd5b600061230a848285016121d0565b91505092915050565b600061231f8383612352565b60208301905092915050565b600061233783836127d9565b60208301905092915050565b61234c81612c3d565b82525050565b61235b81612beb565b82525050565b61236a81612beb565b82525050565b600061237b82612b5b565b6123858185612b8b565b935061239083612b3b565b8060005b838110156123c15781516123a88882612313565b97506123b383612b71565b925050600181019050612394565b5085935050505092915050565b60006123d982612b5b565b6123e38185612b9c565b93506123ee83612b3b565b8060005b8381101561241f5781516124068882612313565b975061241183612b71565b9250506001810190506123f2565b5085935050505092915050565b600061243782612b66565b6124418185612bad565b935061244c83612b4b565b8060005b8381101561247d578151612464888261232b565b975061246f83612b7e565b925050600181019050612450565b5085935050505092915050565b600061249582612b66565b61249f8185612bbe565b93506124aa83612b4b565b8060005b838110156124db5781516124c2888261232b565b97506124cd83612b7e565b9250506001810190506124ae565b5085935050505092915050565b6124f181612bfd565b82525050565b61250081612c09565b82525050565b6000612513600d83612bda565b915061251e82612c73565b602082019050919050565b6000612536600a83612bda565b915061254182612c9c565b602082019050919050565b6000612559601983612bda565b915061256482612cc5565b602082019050919050565b600061257c601583612bda565b915061258782612cee565b602082019050919050565b600061259f600f83612bda565b91506125aa82612d17565b602082019050919050565b60006125c2601483612bda565b91506125cd82612d40565b602082019050919050565b60006125e5602183612bda565b91506125f082612d69565b604082019050919050565b6000612608601683612bda565b915061261382612db8565b602082019050919050565b600061262b600783612bda565b915061263682612de1565b602082019050919050565b600061264e600983612bda565b915061265982612e0a565b602082019050919050565b6000612671600083612bcf565b915061267c82612e33565b600082019050919050565b6000612694601083612bda565b915061269f82612e36565b602082019050919050565b60006126b7600a83612bda565b91506126c282612e5f565b602082019050919050565b60006126da600e83612bda565b91506126e582612e88565b602082019050919050565b60006126fd600c83612bda565b915061270882612eb1565b602082019050919050565b6000612720600b83612bda565b915061272b82612eda565b602082019050919050565b600060e08301600083015161274e60008601826127d9565b50602083015161276160208601826127d9565b50604083015161277460408601826127d9565b50606083015161278760608601826127d9565b50608083015161279a6080860182612352565b5060a083015184820360a08601526127b2828261242c565b91505060c083015184820360c08601526127cc8282612370565b9150508091505092915050565b6127e281612c33565b82525050565b6127f181612c33565b82525050565b600061280282612664565b9150819050919050565b60006060820190506128216000830186612361565b61282e6020830185612343565b61283b60408301846127e8565b949350505050565b60006080820190506128586000830187612361565b61286560208301866127e8565b818103604083015261287781856123ce565b9050818103606083015261288b818461248a565b905095945050505050565b60006020820190506128ab60008301846124e8565b92915050565b60006020820190506128c660008301846124f7565b92915050565b600060208201905081810360008301526128e581612506565b9050919050565b6000602082019050818103600083015261290581612529565b9050919050565b600060208201905081810360008301526129258161254c565b9050919050565b600060208201905081810360008301526129458161256f565b9050919050565b6000602082019050818103600083015261296581612592565b9050919050565b60006020820190508181036000830152612985816125b5565b9050919050565b600060208201905081810360008301526129a5816125d8565b9050919050565b600060208201905081810360008301526129c5816125fb565b9050919050565b600060208201905081810360008301526129e58161261e565b9050919050565b60006020820190508181036000830152612a0581612641565b9050919050565b60006020820190508181036000830152612a2581612687565b9050919050565b60006020820190508181036000830152612a45816126aa565b9050919050565b60006020820190508181036000830152612a65816126cd565b9050919050565b60006020820190508181036000830152612a85816126f0565b9050919050565b60006020820190508181036000830152612aa581612713565b9050919050565b60006020820190508181036000830152612ac68184612736565b905092915050565b6000602082019050612ae360008301846127e8565b92915050565b6000604082019050612afe60008301856127e8565b612b0b6020830184612361565b9392505050565b6000604082019050612b2760008301856127e8565b612b3460208301846127e8565b9392505050565b6000819050602082019050919050565b6000819050602082019050919050565b600081519050919050565b600081519050919050565b6000602082019050919050565b6000602082019050919050565b600082825260208201905092915050565b600082825260208201905092915050565b600082825260208201905092915050565b600082825260208201905092915050565b600081905092915050565b600082825260208201905092915050565b6000612bf682612c13565b9050919050565b60008115159050919050565b6000819050919050565b600073ffffffffffffffffffffffffffffffffffffffff82169050919050565b6000819050919050565b6000612c4882612c4f565b9050919050565b6000612c5a82612c61565b9050919050565b6000612c6c82612c13565b9050919050565b7f696e762e20656e64206461746500000000000000000000000000000000000000600082015250565b7f6f6e6c792061646d696e00000000000000000000000000000000000000000000600082015250565b7f796f75277265206e6f7420686967686573742062696464657200000000000000600082015250565b7f746f6b656e207472616e73666572206661696c65640000000000000000000000600082015250565b7f616c726561647920737461727465640000000000000000000000000000000000600082015250565b7f70617920746865206c697374696e672066656573000000000000000000000000600082015250565b7f63616e2774206765742068696768206f6e20796f7572206f776e20737570706c60008201527f7900000000000000000000000000000000000000000000000000000000000000602082015250565b7f616c726561647920636c61696d656420627920796f7500000000000000000000600082015250565b7f746f6f206c6f7700000000000000000000000000000000000000000000000000600082015250565b7f4e6f74206f776e65720000000000000000000000000000000000000000000000600082015250565b50565b7f5472616e73666572206661696c65642e00000000000000000000000000000000600082015250565b7f6e6f74206c697374656400000000000000000000000000000000000000000000600082015250565b7f616c7265616479206c6973746564000000000000000000000000000000000000600082015250565b7f7374696c6c206163746976650000000000000000000000000000000000000000600082015250565b7f6e6f742073746172746564000000000000000000000000000000000000000000600082015250565b612f0c81612beb565b8114612f1757600080fd5b50565b612f2381612c33565b8114612f2e57600080fd5b5056fea2646970667358221220ec093f11963d6e3a3a7eba84dd1e3526fe3db54a7011e779e224184feb300aae64736f6c63430008030033",
  "linkReferences": {},
  "deployedLinkReferences": {}
}