{
  "_format": "hh-sol-artifact-1",
  "contractName": "MarketPlace",
  "sourceName": "contracts/MarketPlace.sol",
  "abi": [
    {
      "inputs": [],
      "stateMutability": "nonpayable",
      "type": "constructor"
    },
    {
      "anonymous": false,
      "inputs": [
        {
          "indexed": true,
          "internalType": "address",
          "name": "erc721",
          "type": "address"
        },
        {
          "indexed": true,
          "internalType": "uint256",
          "name": "tokenId",
          "type": "uint256"
        },
        {
          "indexed": true,
          "internalType": "address",
          "name": "bidder",
          "type": "address"
        },
        {
          "indexed": false,
          "internalType": "uint256",
          "name": "bid",
          "type": "uint256"
        }
      ],
      "name": "Bid",
      "type": "event"
    },
    {
      "anonymous": false,
      "inputs": [
        {
          "indexed": true,
          "internalType": "address",
          "name": "erc721",
          "type": "address"
        },
        {
          "indexed": true,
          "internalType": "uint256",
          "name": "tokenId",
          "type": "uint256"
        },
        {
          "indexed": true,
          "internalType": "address",
          "name": "bidder",
          "type": "address"
        },
        {
          "indexed": false,
          "internalType": "uint256",
          "name": "bid",
          "type": "uint256"
        },
        {
          "indexed": false,
          "internalType": "address",
          "name": "formerOwner",
          "type": "address"
        }
      ],
      "name": "Claimed",
      "type": "event"
    },
    {
      "anonymous": false,
      "inputs": [
        {
          "indexed": true,
          "internalType": "address",
          "name": "erc721",
          "type": "address"
        },
        {
          "indexed": true,
          "internalType": "uint256",
          "name": "tokenId",
          "type": "uint256"
        },
        {
          "indexed": false,
          "internalType": "uint256",
          "name": "startDate",
          "type": "uint256"
        },
        {
          "indexed": false,
          "internalType": "uint256",
          "name": "endDate",
          "type": "uint256"
        }
      ],
      "name": "Listed",
      "type": "event"
    },
    {
      "inputs": [],
      "name": "ADMIN_ROLE",
      "outputs": [
        {
          "internalType": "bytes32",
          "name": "",
          "type": "bytes32"
        }
      ],
      "stateMutability": "view",
      "type": "function"
    },
    {
      "inputs": [
        {
          "internalType": "address",
          "name": "newAdmin",
          "type": "address"
        }
      ],
      "name": "addAdmin",
      "outputs": [],
      "stateMutability": "nonpayable",
      "type": "function"
    },
    {
      "inputs": [
        {
          "internalType": "address",
          "name": "erc721",
          "type": "address"
        },
        {
          "internalType": "uint256",
          "name": "tokenId",
          "type": "uint256"
        }
      ],
      "name": "bid",
      "outputs": [],
      "stateMutability": "payable",
      "type": "function"
    },
    {
      "inputs": [
        {
          "internalType": "address",
          "name": "erc721",
          "type": "address"
        },
        {
          "internalType": "uint256",
          "name": "tokenId",
          "type": "uint256"
        }
      ],
      "name": "claim",
      "outputs": [],
      "stateMutability": "nonpayable",
      "type": "function"
    },
    {
      "inputs": [
        {
          "internalType": "address",
          "name": "erc721",
          "type": "address"
        },
        {
          "internalType": "uint256",
          "name": "tokenId",
          "type": "uint256"
        }
      ],
      "name": "forceAuctionToEnd",
      "outputs": [],
      "stateMutability": "nonpayable",
      "type": "function"
    },
    {
      "inputs": [
        {
          "internalType": "address",
          "name": "erc721",
          "type": "address"
        },
        {
          "internalType": "uint256",
          "name": "tokenId",
          "type": "uint256"
        }
      ],
      "name": "getBids",
      "outputs": [
        {
          "internalType": "address",
          "name": "",
          "type": "address"
        },
        {
          "internalType": "uint256",
          "name": "",
          "type": "uint256"
        },
        {
          "internalType": "address[]",
          "name": "",
          "type": "address[]"
        },
        {
          "internalType": "uint256[]",
          "name": "",
          "type": "uint256[]"
        }
      ],
      "stateMutability": "view",
      "type": "function"
    },
    {
      "inputs": [
        {
          "internalType": "address",
          "name": "erc721",
          "type": "address"
        },
        {
          "internalType": "uint256",
          "name": "tokenId",
          "type": "uint256"
        }
      ],
      "name": "getFullBids",
      "outputs": [
        {
          "components": [
            {
              "internalType": "uint256",
              "name": "startDate",
              "type": "uint256"
            },
            {
              "internalType": "uint256",
              "name": "endDate",
              "type": "uint256"
            },
            {
              "internalType": "uint256",
              "name": "minBid",
              "type": "uint256"
            },
            {
              "internalType": "uint256",
              "name": "currentBid",
              "type": "uint256"
            },
            {
              "internalType": "address",
              "name": "currentBidder",
              "type": "address"
            },
            {
              "internalType": "uint256[]",
              "name": "bids",
              "type": "uint256[]"
            },
            {
              "internalType": "address[]",
              "name": "currentBidders",
              "type": "address[]"
            }
          ],
          "internalType": "struct MarketPlace.Bids",
          "name": "",
          "type": "tuple"
        }
      ],
      "stateMutability": "view",
      "type": "function"
    },
    {
      "inputs": [
        {
          "internalType": "address",
          "name": "check",
          "type": "address"
        }
      ],
      "name": "isAdmin",
      "outputs": [
        {
          "internalType": "bool",
          "name": "",
          "type": "bool"
        }
      ],
      "stateMutability": "view",
      "type": "function"
    },
    {
      "inputs": [
        {
          "internalType": "address",
          "name": "erc721",
          "type": "address"
        },
        {
          "internalType": "uint256",
          "name": "tokenId",
          "type": "uint256"
        }
      ],
      "name": "isListed",
      "outputs": [
        {
          "internalType": "bool",
          "name": "",
          "type": "bool"
        }
      ],
      "stateMutability": "view",
      "type": "function"
    },
    {
      "inputs": [
        {
          "internalType": "address",
          "name": "erc721",
          "type": "address"
        },
        {
          "internalType": "uint256",
          "name": "tokenId",
          "type": "uint256"
        },
        {
          "internalType": "uint256",
          "name": "_startDate",
          "type": "uint256"
        },
        {
          "internalType": "uint256",
          "name": "_endDate",
          "type": "uint256"
        },
        {
          "internalType": "uint256",
          "name": "_minBid",
          "type": "uint256"
        }
      ],
      "name": "list",
      "outputs": [],
      "stateMutability": "payable",
      "type": "function"
    },
    {
      "inputs": [],
      "name": "listingFee",
      "outputs": [
        {
          "internalType": "uint256",
          "name": "",
          "type": "uint256"
        }
      ],
      "stateMutability": "view",
      "type": "function"
    },
    {
      "inputs": [
        {
          "internalType": "uint256",
          "name": "newFee",
          "type": "uint256"
        }
      ],
      "name": "setListingFee",
      "outputs": [],
      "stateMutability": "nonpayable",
      "type": "function"
    }
  ],
  "bytecode": "0x6080604052662386f26fc1000060005534801561001b57600080fd5b5033600260006101000a81548173ffffffffffffffffffffffffffffffffffffffff021916908373ffffffffffffffffffffffffffffffffffffffff1602179055507fa49807205ce4d355092ef5a8a18f56e8913cf4a201fbe287825b095693c2177560016000600260009054906101000a900473ffffffffffffffffffffffffffffffffffffffff1673ffffffffffffffffffffffffffffffffffffffff1673ffffffffffffffffffffffffffffffffffffffff16815260200190815260200160002081905550612dde806100f26000396000f3fe6080604052600436106100a75760003560e01c8063aad3ec9611610064578063aad3ec96146101ad578063b5f38dce146101d6578063b8bf029b14610216578063c51abce014610232578063cdb3cd251461025b578063d5a3eb0214610298576100a7565b8063131dbd09146100ac57806324d7806c146100d557806359d667a5146101125780636a1b7ecc1461012e578063704802751461015957806375b238fc14610182575b600080fd5b3480156100b857600080fd5b506100d360048036038101906100ce91906121f3565b6102d5565b005b3480156100e157600080fd5b506100fc60048036038101906100f791906120ee565b61034a565b604051610109919061277c565b60405180910390f35b61012c60048036038101906101279190612140565b6103b5565b005b34801561013a57600080fd5b50610143610a3a565b6040516101509190612994565b60405180910390f35b34801561016557600080fd5b50610180600480360381019061017b91906120ee565b610a40565b005b34801561018e57600080fd5b50610197610b12565b6040516101a49190612797565b60405180910390f35b3480156101b957600080fd5b506101d460048036038101906101cf9190612140565b610b36565b005b3480156101e257600080fd5b506101fd60048036038101906101f89190612140565b6113aa565b60405161020d9493929190612729565b60405180910390f35b610230600480360381019061022b919061217c565b6115fd565b005b34801561023e57600080fd5b5061025960048036038101906102549190612140565b611a5c565b005b34801561026757600080fd5b50610282600480360381019061027d9190612140565b611b20565b60405161028f919061277c565b60405180910390f35b3480156102a457600080fd5b506102bf60048036038101906102ba9190612140565b611b7d565b6040516102cc9190612972565b60405180910390f35b33610300817fa49807205ce4d355092ef5a8a18f56e8913cf4a201fbe287825b095693c21775611ef8565b61033f576040517f08c379a0000000000000000000000000000000000000000000000000000000008152600401610336906127d2565b60405180910390fd5b816000819055505050565b60007fa49807205ce4d355092ef5a8a18f56e8913cf4a201fbe287825b095693c21775600160008473ffffffffffffffffffffffffffffffffffffffff1673ffffffffffffffffffffffffffffffffffffffff16815260200190815260200160002054149050919050565b6103bf8282611b20565b6103fe576040517f08c379a00000000000000000000000000000000000000000000000000000000081526004016103f5906128f2565b60405180910390fd5b6104088282611f44565b610447576040517f08c379a000000000000000000000000000000000000000000000000000000000815260040161043e90612952565b60405180910390fd5b600073ffffffffffffffffffffffffffffffffffffffff16600760008473ffffffffffffffffffffffffffffffffffffffff1673ffffffffffffffffffffffffffffffffffffffff168152602001908152602001600020600083815260200190815260200160002060009054906101000a900473ffffffffffffffffffffffffffffffffffffffff1673ffffffffffffffffffffffffffffffffffffffff1614156105835734600560008473ffffffffffffffffffffffffffffffffffffffff1673ffffffffffffffffffffffffffffffffffffffff1681526020019081526020016000206000838152602001908152602001600020541061057e576040517f08c379a000000000000000000000000000000000000000000000000000000000815260040161057590612892565b60405180910390fd5b610616565b34600660008473ffffffffffffffffffffffffffffffffffffffff1673ffffffffffffffffffffffffffffffffffffffff16815260200190815260200160002060008381526020019081526020016000205410610615576040517f08c379a000000000000000000000000000000000000000000000000000000000815260040161060c90612892565b60405180910390fd5b5b6000600760008473ffffffffffffffffffffffffffffffffffffffff1673ffffffffffffffffffffffffffffffffffffffff168152602001908152602001600020600083815260200190815260200160002060009054906101000a900473ffffffffffffffffffffffffffffffffffffffff1690506000600660008573ffffffffffffffffffffffffffffffffffffffff1673ffffffffffffffffffffffffffffffffffffffff168152602001908152602001600020600084815260200190815260200160002054905034600660008673ffffffffffffffffffffffffffffffffffffffff1673ffffffffffffffffffffffffffffffffffffffff16815260200190815260200160002060008581526020019081526020016000208190555033600760008673ffffffffffffffffffffffffffffffffffffffff1673ffffffffffffffffffffffffffffffffffffffff168152602001908152602001600020600085815260200190815260200160002060006101000a81548173ffffffffffffffffffffffffffffffffffffffff021916908373ffffffffffffffffffffffffffffffffffffffff160217905550600860008573ffffffffffffffffffffffffffffffffffffffff1673ffffffffffffffffffffffffffffffffffffffff1681526020019081526020016000206000848152602001908152602001600020349080600181540180825580915050600190039060005260206000200160009091909190915055600960008573ffffffffffffffffffffffffffffffffffffffff1673ffffffffffffffffffffffffffffffffffffffff1681526020019081526020016000206000848152602001908152602001600020339080600181540180825580915050600190039060005260206000200160009091909190916101000a81548173ffffffffffffffffffffffffffffffffffffffff021916908373ffffffffffffffffffffffffffffffffffffffff160217905550600073ffffffffffffffffffffffffffffffffffffffff168273ffffffffffffffffffffffffffffffffffffffff16146109ce5760008273ffffffffffffffffffffffffffffffffffffffff1682604051610946906126dd565b60006040518083038185875af1925050503d8060008114610983576040519150601f19603f3d011682016040523d82523d6000602084013e610988565b606091505b50509050806109cc576040517f08c379a00000000000000000000000000000000000000000000000000000000081526004016109c3906128d2565b60405180910390fd5b505b3373ffffffffffffffffffffffffffffffffffffffff16838573ffffffffffffffffffffffffffffffffffffffff167f7f863cab1b412077be133ef69af7df0e6aca4c67ff7d89db843d601f124a025d34604051610a2c9190612994565b60405180910390a450505050565b60005481565b33610a6b817fa49807205ce4d355092ef5a8a18f56e8913cf4a201fbe287825b095693c21775611ef8565b610aaa576040517f08c379a0000000000000000000000000000000000000000000000000000000008152600401610aa1906127d2565b60405180910390fd5b7fa49807205ce4d355092ef5a8a18f56e8913cf4a201fbe287825b095693c21775600160008473ffffffffffffffffffffffffffffffffffffffff1673ffffffffffffffffffffffffffffffffffffffff168152602001908152602001600020819055505050565b7fa49807205ce4d355092ef5a8a18f56e8913cf4a201fbe287825b095693c2177581565b610b408282611b20565b610b7f576040517f08c379a0000000000000000000000000000000000000000000000000000000008152600401610b76906128f2565b60405180910390fd5b60008273ffffffffffffffffffffffffffffffffffffffff16636352211e836040518263ffffffff1660e01b8152600401610bba9190612994565b60206040518083038186803b158015610bd257600080fd5b505afa158015610be6573d6000803e3d6000fd5b505050506040513d601f19601f82011682018060405250810190610c0a9190612117565b9050600460008473ffffffffffffffffffffffffffffffffffffffff1673ffffffffffffffffffffffffffffffffffffffff1681526020019081526020016000206000838152602001908152602001600020544211610c9e576040517f08c379a0000000000000000000000000000000000000000000000000000000008152600401610c9590612932565b60405180910390fd5b3373ffffffffffffffffffffffffffffffffffffffff16600760008573ffffffffffffffffffffffffffffffffffffffff1673ffffffffffffffffffffffffffffffffffffffff168152602001908152602001600020600084815260200190815260200160002060009054906101000a900473ffffffffffffffffffffffffffffffffffffffff1673ffffffffffffffffffffffffffffffffffffffff1614610d7c576040517f08c379a0000000000000000000000000000000000000000000000000000000008152600401610d73906127f2565b60405180910390fd5b3373ffffffffffffffffffffffffffffffffffffffff168173ffffffffffffffffffffffffffffffffffffffff161415610deb576040517f08c379a0000000000000000000000000000000000000000000000000000000008152600401610de290612872565b60405180910390fd5b8273ffffffffffffffffffffffffffffffffffffffff166323b872dd8233856040518463ffffffff1660e01b8152600401610e28939291906126f2565b600060405180830381600087803b158015610e4257600080fd5b505af1158015610e56573d6000803e3d6000fd5b505050503373ffffffffffffffffffffffffffffffffffffffff168373ffffffffffffffffffffffffffffffffffffffff16636352211e846040518263ffffffff1660e01b8152600401610eaa9190612994565b60206040518083038186803b158015610ec257600080fd5b505afa158015610ed6573d6000803e3d6000fd5b505050506040513d601f19601f82011682018060405250810190610efa9190612117565b73ffffffffffffffffffffffffffffffffffffffff1614610f50576040517f08c379a0000000000000000000000000000000000000000000000000000000008152600401610f4790612812565b60405180910390fd5b60008173ffffffffffffffffffffffffffffffffffffffff16600660008673ffffffffffffffffffffffffffffffffffffffff1673ffffffffffffffffffffffffffffffffffffffff168152602001908152602001600020600085815260200190815260200160002054604051610fc6906126dd565b60006040518083038185875af1925050503d8060008114611003576040519150601f19603f3d011682016040523d82523d6000602084013e611008565b606091505b505090508061104c576040517f08c379a0000000000000000000000000000000000000000000000000000000008152600401611043906128d2565b60405180910390fd5b6000600360008673ffffffffffffffffffffffffffffffffffffffff1673ffffffffffffffffffffffffffffffffffffffff1681526020019081526020016000206000858152602001908152602001600020819055506000600460008673ffffffffffffffffffffffffffffffffffffffff1673ffffffffffffffffffffffffffffffffffffffff1681526020019081526020016000206000858152602001908152602001600020819055506000600560008673ffffffffffffffffffffffffffffffffffffffff1673ffffffffffffffffffffffffffffffffffffffff168152602001908152602001600020600085815260200190815260200160002081905550600960008573ffffffffffffffffffffffffffffffffffffffff1673ffffffffffffffffffffffffffffffffffffffff168152602001908152602001600020600084815260200190815260200160002060006111aa9190611ffd565b600860008573ffffffffffffffffffffffffffffffffffffffff1673ffffffffffffffffffffffffffffffffffffffff16815260200190815260200160002060008481526020019081526020016000206000611206919061201e565b6000600660008673ffffffffffffffffffffffffffffffffffffffff1673ffffffffffffffffffffffffffffffffffffffff1681526020019081526020016000206000858152602001908152602001600020819055506000600760008673ffffffffffffffffffffffffffffffffffffffff1673ffffffffffffffffffffffffffffffffffffffff168152602001908152602001600020600085815260200190815260200160002060006101000a81548173ffffffffffffffffffffffffffffffffffffffff021916908373ffffffffffffffffffffffffffffffffffffffff1602179055503373ffffffffffffffffffffffffffffffffffffffff16838573ffffffffffffffffffffffffffffffffffffffff167f2ff23a03adcd87db2418d745f5b3f8a4b4fbfe715e10721f40bab918802a43f7600660008973ffffffffffffffffffffffffffffffffffffffff1673ffffffffffffffffffffffffffffffffffffffff1681526020019081526020016000206000888152602001908152602001600020548660405161139c9291906129af565b60405180910390a450505050565b600080606080600760008773ffffffffffffffffffffffffffffffffffffffff1673ffffffffffffffffffffffffffffffffffffffff168152602001908152602001600020600086815260200190815260200160002060009054906101000a900473ffffffffffffffffffffffffffffffffffffffff16600660008873ffffffffffffffffffffffffffffffffffffffff1673ffffffffffffffffffffffffffffffffffffffff168152602001908152602001600020600087815260200190815260200160002054600960008973ffffffffffffffffffffffffffffffffffffffff1673ffffffffffffffffffffffffffffffffffffffff1681526020019081526020016000206000888152602001908152602001600020600860008a73ffffffffffffffffffffffffffffffffffffffff1673ffffffffffffffffffffffffffffffffffffffff16815260200190815260200160002060008981526020019081526020016000208180548060200260200160405190810160405280929190818152602001828054801561159357602002820191906000526020600020905b8160009054906101000a900473ffffffffffffffffffffffffffffffffffffffff1673ffffffffffffffffffffffffffffffffffffffff1681526020019060010190808311611549575b50505050509150808054806020026020016040519081016040528092919081815260200182805480156115e557602002820191906000526020600020905b8154815260200190600101908083116115d1575b50505050509050935093509350935092959194509250565b600054341015611642576040517f08c379a000000000000000000000000000000000000000000000000000000000815260040161163990612852565b60405180910390fd5b3373ffffffffffffffffffffffffffffffffffffffff168573ffffffffffffffffffffffffffffffffffffffff16636352211e866040518263ffffffff1660e01b81526004016116929190612994565b60206040518083038186803b1580156116aa57600080fd5b505afa1580156116be573d6000803e3d6000fd5b505050506040513d601f19601f820116820180604052508101906116e29190612117565b73ffffffffffffffffffffffffffffffffffffffff1614611738576040517f08c379a000000000000000000000000000000000000000000000000000000000815260040161172f906128b2565b60405180910390fd5b6117428585611f44565b15611782576040517f08c379a000000000000000000000000000000000000000000000000000000000815260040161177990612832565b60405180910390fd5b61178c8585611b20565b801561179e575061179d8585611f44565b5b156117de576040517f08c379a00000000000000000000000000000000000000000000000000000000081526004016117d590612912565b60405180910390fd5b814210611820576040517f08c379a0000000000000000000000000000000000000000000000000000000008152600401611817906127b2565b60405180910390fd5b82600360008773ffffffffffffffffffffffffffffffffffffffff1673ffffffffffffffffffffffffffffffffffffffff16815260200190815260200160002060008681526020019081526020016000208190555081600460008773ffffffffffffffffffffffffffffffffffffffff1673ffffffffffffffffffffffffffffffffffffffff16815260200190815260200160002060008681526020019081526020016000208190555080600560008773ffffffffffffffffffffffffffffffffffffffff1673ffffffffffffffffffffffffffffffffffffffff16815260200190815260200160002060008681526020019081526020016000208190555080600660008773ffffffffffffffffffffffffffffffffffffffff1673ffffffffffffffffffffffffffffffffffffffff1681526020019081526020016000206000868152602001908152602001600020819055506000600760008773ffffffffffffffffffffffffffffffffffffffff1673ffffffffffffffffffffffffffffffffffffffff168152602001908152602001600020600086815260200190815260200160002060006101000a81548173ffffffffffffffffffffffffffffffffffffffff021916908373ffffffffffffffffffffffffffffffffffffffff160217905550838573ffffffffffffffffffffffffffffffffffffffff167f03dec9cb5eb28fc88294be525eef5c4e1c3f2ca49fbe9c31a5ae6f11945aaec18585604051611a4d9291906129d8565b60405180910390a35050505050565b33611a87817fa49807205ce4d355092ef5a8a18f56e8913cf4a201fbe287825b095693c21775611ef8565b611ac6576040517f08c379a0000000000000000000000000000000000000000000000000000000008152600401611abd906127d2565b60405180910390fd5b42600460008573ffffffffffffffffffffffffffffffffffffffff1673ffffffffffffffffffffffffffffffffffffffff168152602001908152602001600020600084815260200190815260200160002081905550505050565b600080600360008573ffffffffffffffffffffffffffffffffffffffff1673ffffffffffffffffffffffffffffffffffffffff16815260200190815260200160002060008481526020019081526020016000205411905092915050565b611b8561203f565b6040518060e00160405280600360008673ffffffffffffffffffffffffffffffffffffffff1673ffffffffffffffffffffffffffffffffffffffff1681526020019081526020016000206000858152602001908152602001600020548152602001600460008673ffffffffffffffffffffffffffffffffffffffff1673ffffffffffffffffffffffffffffffffffffffff1681526020019081526020016000206000858152602001908152602001600020548152602001600560008673ffffffffffffffffffffffffffffffffffffffff1673ffffffffffffffffffffffffffffffffffffffff1681526020019081526020016000206000858152602001908152602001600020548152602001600660008673ffffffffffffffffffffffffffffffffffffffff1673ffffffffffffffffffffffffffffffffffffffff1681526020019081526020016000206000858152602001908152602001600020548152602001600760008673ffffffffffffffffffffffffffffffffffffffff1673ffffffffffffffffffffffffffffffffffffffff168152602001908152602001600020600085815260200190815260200160002060009054906101000a900473ffffffffffffffffffffffffffffffffffffffff1673ffffffffffffffffffffffffffffffffffffffff168152602001600860008673ffffffffffffffffffffffffffffffffffffffff1673ffffffffffffffffffffffffffffffffffffffff1681526020019081526020016000206000858152602001908152602001600020805480602002602001604051908101604052809291908181526020018280548015611e0e57602002820191906000526020600020905b815481526020019060010190808311611dfa575b50505050508152602001600960008673ffffffffffffffffffffffffffffffffffffffff1673ffffffffffffffffffffffffffffffffffffffff1681526020019081526020016000206000858152602001908152602001600020805480602002602001604051908101604052809291908181526020018280548015611ee857602002820191906000526020600020905b8160009054906101000a900473ffffffffffffffffffffffffffffffffffffffff1673ffffffffffffffffffffffffffffffffffffffff1681526020019060010190808311611e9e575b5050505050815250905092915050565b600081600160008573ffffffffffffffffffffffffffffffffffffffff1673ffffffffffffffffffffffffffffffffffffffff1681526020019081526020016000205414905092915050565b6000600360008473ffffffffffffffffffffffffffffffffffffffff1673ffffffffffffffffffffffffffffffffffffffff1681526020019081526020016000206000838152602001908152602001600020544210158015611ff55750600460008473ffffffffffffffffffffffffffffffffffffffff1673ffffffffffffffffffffffffffffffffffffffff16815260200190815260200160002060008381526020019081526020016000205442105b905092915050565b508054600082559060005260206000209081019061201b9190612092565b50565b508054600082559060005260206000209081019061203c9190612092565b50565b6040518060e0016040528060008152602001600081526020016000815260200160008152602001600073ffffffffffffffffffffffffffffffffffffffff16815260200160608152602001606081525090565b5b808211156120ab576000816000905550600101612093565b5090565b6000813590506120be81612d7a565b92915050565b6000815190506120d381612d7a565b92915050565b6000813590506120e881612d91565b92915050565b60006020828403121561210057600080fd5b600061210e848285016120af565b91505092915050565b60006020828403121561212957600080fd5b6000612137848285016120c4565b91505092915050565b6000806040838503121561215357600080fd5b6000612161858286016120af565b9250506020612172858286016120d9565b9150509250929050565b600080600080600060a0868803121561219457600080fd5b60006121a2888289016120af565b95505060206121b3888289016120d9565b94505060406121c4888289016120d9565b93505060606121d5888289016120d9565b92505060806121e6888289016120d9565b9150509295509295909350565b60006020828403121561220557600080fd5b6000612213848285016120d9565b91505092915050565b6000612228838361225b565b60208301905092915050565b600061224083836126bf565b60208301905092915050565b61225581612b03565b82525050565b61226481612ab1565b82525050565b61227381612ab1565b82525050565b600061228482612a21565b61228e8185612a51565b935061229983612a01565b8060005b838110156122ca5781516122b1888261221c565b97506122bc83612a37565b92505060018101905061229d565b5085935050505092915050565b60006122e282612a21565b6122ec8185612a62565b93506122f783612a01565b8060005b8381101561232857815161230f888261221c565b975061231a83612a37565b9250506001810190506122fb565b5085935050505092915050565b600061234082612a2c565b61234a8185612a73565b935061235583612a11565b8060005b8381101561238657815161236d8882612234565b975061237883612a44565b925050600181019050612359565b5085935050505092915050565b600061239e82612a2c565b6123a88185612a84565b93506123b383612a11565b8060005b838110156123e45781516123cb8882612234565b97506123d683612a44565b9250506001810190506123b7565b5085935050505092915050565b6123fa81612ac3565b82525050565b61240981612acf565b82525050565b600061241c600d83612aa0565b915061242782612b39565b602082019050919050565b600061243f600a83612aa0565b915061244a82612b62565b602082019050919050565b6000612462601983612aa0565b915061246d82612b8b565b602082019050919050565b6000612485601583612aa0565b915061249082612bb4565b602082019050919050565b60006124a8600f83612aa0565b91506124b382612bdd565b602082019050919050565b60006124cb601483612aa0565b91506124d682612c06565b602082019050919050565b60006124ee601683612aa0565b91506124f982612c2f565b602082019050919050565b6000612511600783612aa0565b915061251c82612c58565b602082019050919050565b6000612534600983612aa0565b915061253f82612c81565b602082019050919050565b6000612557600083612a95565b915061256282612caa565b600082019050919050565b600061257a601083612aa0565b915061258582612cad565b602082019050919050565b600061259d600a83612aa0565b91506125a882612cd6565b602082019050919050565b60006125c0600e83612aa0565b91506125cb82612cff565b602082019050919050565b60006125e3600c83612aa0565b91506125ee82612d28565b602082019050919050565b6000612606600b83612aa0565b915061261182612d51565b602082019050919050565b600060e08301600083015161263460008601826126bf565b50602083015161264760208601826126bf565b50604083015161265a60408601826126bf565b50606083015161266d60608601826126bf565b506080830151612680608086018261225b565b5060a083015184820360a08601526126988282612335565b91505060c083015184820360c08601526126b28282612279565b9150508091505092915050565b6126c881612af9565b82525050565b6126d781612af9565b82525050565b60006126e88261254a565b9150819050919050565b6000606082019050612707600083018661226a565b612714602083018561224c565b61272160408301846126ce565b949350505050565b600060808201905061273e600083018761226a565b61274b60208301866126ce565b818103604083015261275d81856122d7565b905081810360608301526127718184612393565b905095945050505050565b600060208201905061279160008301846123f1565b92915050565b60006020820190506127ac6000830184612400565b92915050565b600060208201905081810360008301526127cb8161240f565b9050919050565b600060208201905081810360008301526127eb81612432565b9050919050565b6000602082019050818103600083015261280b81612455565b9050919050565b6000602082019050818103600083015261282b81612478565b9050919050565b6000602082019050818103600083015261284b8161249b565b9050919050565b6000602082019050818103600083015261286b816124be565b9050919050565b6000602082019050818103600083015261288b816124e1565b9050919050565b600060208201905081810360008301526128ab81612504565b9050919050565b600060208201905081810360008301526128cb81612527565b9050919050565b600060208201905081810360008301526128eb8161256d565b9050919050565b6000602082019050818103600083015261290b81612590565b9050919050565b6000602082019050818103600083015261292b816125b3565b9050919050565b6000602082019050818103600083015261294b816125d6565b9050919050565b6000602082019050818103600083015261296b816125f9565b9050919050565b6000602082019050818103600083015261298c818461261c565b905092915050565b60006020820190506129a960008301846126ce565b92915050565b60006040820190506129c460008301856126ce565b6129d1602083018461226a565b9392505050565b60006040820190506129ed60008301856126ce565b6129fa60208301846126ce565b9392505050565b6000819050602082019050919050565b6000819050602082019050919050565b600081519050919050565b600081519050919050565b6000602082019050919050565b6000602082019050919050565b600082825260208201905092915050565b600082825260208201905092915050565b600082825260208201905092915050565b600082825260208201905092915050565b600081905092915050565b600082825260208201905092915050565b6000612abc82612ad9565b9050919050565b60008115159050919050565b6000819050919050565b600073ffffffffffffffffffffffffffffffffffffffff82169050919050565b6000819050919050565b6000612b0e82612b15565b9050919050565b6000612b2082612b27565b9050919050565b6000612b3282612ad9565b9050919050565b7f696e762e20656e64206461746500000000000000000000000000000000000000600082015250565b7f6f6e6c792061646d696e00000000000000000000000000000000000000000000600082015250565b7f796f75277265206e6f7420686967686573742062696464657200000000000000600082015250565b7f746f6b656e207472616e73666572206661696c65640000000000000000000000600082015250565b7f616c726561647920737461727465640000000000000000000000000000000000600082015250565b7f70617920746865206c697374696e672066656573000000000000000000000000600082015250565b7f616c726561647920636c61696d656420627920796f7500000000000000000000600082015250565b7f746f6f206c6f7700000000000000000000000000000000000000000000000000600082015250565b7f4e6f74206f776e65720000000000000000000000000000000000000000000000600082015250565b50565b7f5472616e73666572206661696c65642e00000000000000000000000000000000600082015250565b7f6e6f74206c697374656400000000000000000000000000000000000000000000600082015250565b7f616c7265616479206c6973746564000000000000000000000000000000000000600082015250565b7f7374696c6c206163746976650000000000000000000000000000000000000000600082015250565b7f6e6f742073746172746564000000000000000000000000000000000000000000600082015250565b612d8381612ab1565b8114612d8e57600080fd5b50565b612d9a81612af9565b8114612da557600080fd5b5056fea2646970667358221220409ef12dd9f3186260a1398795046ad41df57a0cfc81e78babfc1bac2f7f9ad364736f6c63430008030033",
  "linkReferences": {},
  "deployedLinkReferences": {}
}